{
  "contractName": "NFT",
  "abi": [
    {
      "inputs": [
        {
          "internalType": "address",
          "name": "_marketplaceAddress",
          "type": "address"
        }
      ],
      "stateMutability": "nonpayable",
      "type": "constructor"
    },
    {
      "anonymous": false,
      "inputs": [
        {
          "indexed": true,
          "internalType": "address",
          "name": "owner",
          "type": "address"
        },
        {
          "indexed": true,
          "internalType": "address",
          "name": "approved",
          "type": "address"
        },
        {
          "indexed": true,
          "internalType": "uint256",
          "name": "tokenId",
          "type": "uint256"
        }
      ],
      "name": "Approval",
      "type": "event"
    },
    {
      "anonymous": false,
      "inputs": [
        {
          "indexed": true,
          "internalType": "address",
          "name": "owner",
          "type": "address"
        },
        {
          "indexed": true,
          "internalType": "address",
          "name": "operator",
          "type": "address"
        },
        {
          "indexed": false,
          "internalType": "bool",
          "name": "approved",
          "type": "bool"
        }
      ],
      "name": "ApprovalForAll",
      "type": "event"
    },
    {
      "anonymous": false,
      "inputs": [
        {
          "indexed": false,
          "internalType": "uint256",
          "name": "_fromTokenId",
          "type": "uint256"
        },
        {
          "indexed": false,
          "internalType": "uint256",
          "name": "_toTokenId",
          "type": "uint256"
        }
      ],
      "name": "BatchMetadataUpdate",
      "type": "event"
    },
    {
      "anonymous": false,
      "inputs": [
        {
          "indexed": false,
          "internalType": "uint256",
          "name": "_tokenId",
          "type": "uint256"
        }
      ],
      "name": "MetadataUpdate",
      "type": "event"
    },
    {
      "anonymous": false,
      "inputs": [
        {
          "indexed": true,
          "internalType": "uint256",
          "name": "tokenId",
          "type": "uint256"
        },
        {
          "indexed": false,
          "internalType": "string",
          "name": "tokenURI",
          "type": "string"
        },
        {
          "indexed": false,
          "internalType": "address",
          "name": "recipient",
          "type": "address"
        },
        {
          "indexed": false,
          "internalType": "uint256",
          "name": "royalty",
          "type": "uint256"
        },
        {
          "indexed": false,
          "internalType": "address",
          "name": "marketplaceAddress",
          "type": "address"
        }
      ],
      "name": "TokenMinted",
      "type": "event"
    },
    {
      "anonymous": false,
      "inputs": [
        {
          "indexed": true,
          "internalType": "address",
          "name": "from",
          "type": "address"
        },
        {
          "indexed": true,
          "internalType": "address",
          "name": "to",
          "type": "address"
        },
        {
          "indexed": true,
          "internalType": "uint256",
          "name": "tokenId",
          "type": "uint256"
        }
      ],
      "name": "Transfer",
      "type": "event"
    },
    {
      "inputs": [
        {
          "internalType": "address",
          "name": "to",
          "type": "address"
        },
        {
          "internalType": "uint256",
          "name": "tokenId",
          "type": "uint256"
        }
      ],
      "name": "approve",
      "outputs": [],
      "stateMutability": "nonpayable",
      "type": "function"
    },
    {
      "inputs": [
        {
          "internalType": "address",
          "name": "owner",
          "type": "address"
        }
      ],
      "name": "balanceOf",
      "outputs": [
        {
          "internalType": "uint256",
          "name": "",
          "type": "uint256"
        }
      ],
      "stateMutability": "view",
      "type": "function",
      "constant": true
    },
    {
      "inputs": [
        {
          "internalType": "uint256",
          "name": "tokenId",
          "type": "uint256"
        }
      ],
      "name": "getApproved",
      "outputs": [
        {
          "internalType": "address",
          "name": "",
          "type": "address"
        }
      ],
      "stateMutability": "view",
      "type": "function",
      "constant": true
    },
    {
      "inputs": [
        {
          "internalType": "address",
          "name": "owner",
          "type": "address"
        },
        {
          "internalType": "address",
          "name": "operator",
          "type": "address"
        }
      ],
      "name": "isApprovedForAll",
      "outputs": [
        {
          "internalType": "bool",
          "name": "",
          "type": "bool"
        }
      ],
      "stateMutability": "view",
      "type": "function",
      "constant": true
    },
    {
      "inputs": [],
      "name": "name",
      "outputs": [
        {
          "internalType": "string",
          "name": "",
          "type": "string"
        }
      ],
      "stateMutability": "view",
      "type": "function",
      "constant": true
    },
    {
      "inputs": [
        {
          "internalType": "uint256",
          "name": "tokenId",
          "type": "uint256"
        }
      ],
      "name": "ownerOf",
      "outputs": [
        {
          "internalType": "address",
          "name": "",
          "type": "address"
        }
      ],
      "stateMutability": "view",
      "type": "function",
      "constant": true
    },
    {
      "inputs": [
        {
          "internalType": "address",
          "name": "from",
          "type": "address"
        },
        {
          "internalType": "address",
          "name": "to",
          "type": "address"
        },
        {
          "internalType": "uint256",
          "name": "tokenId",
          "type": "uint256"
        }
      ],
      "name": "safeTransferFrom",
      "outputs": [],
      "stateMutability": "nonpayable",
      "type": "function"
    },
    {
      "inputs": [
        {
          "internalType": "address",
          "name": "from",
          "type": "address"
        },
        {
          "internalType": "address",
          "name": "to",
          "type": "address"
        },
        {
          "internalType": "uint256",
          "name": "tokenId",
          "type": "uint256"
        },
        {
          "internalType": "bytes",
          "name": "data",
          "type": "bytes"
        }
      ],
      "name": "safeTransferFrom",
      "outputs": [],
      "stateMutability": "nonpayable",
      "type": "function"
    },
    {
      "inputs": [
        {
          "internalType": "address",
          "name": "operator",
          "type": "address"
        },
        {
          "internalType": "bool",
          "name": "approved",
          "type": "bool"
        }
      ],
      "name": "setApprovalForAll",
      "outputs": [],
      "stateMutability": "nonpayable",
      "type": "function"
    },
    {
      "inputs": [
        {
          "internalType": "bytes4",
          "name": "interfaceId",
          "type": "bytes4"
        }
      ],
      "name": "supportsInterface",
      "outputs": [
        {
          "internalType": "bool",
          "name": "",
          "type": "bool"
        }
      ],
      "stateMutability": "view",
      "type": "function",
      "constant": true
    },
    {
      "inputs": [],
      "name": "symbol",
      "outputs": [
        {
          "internalType": "string",
          "name": "",
          "type": "string"
        }
      ],
      "stateMutability": "view",
      "type": "function",
      "constant": true
    },
    {
      "inputs": [
        {
          "internalType": "uint256",
          "name": "",
          "type": "uint256"
        }
      ],
      "name": "tokenRoyalties",
      "outputs": [
        {
          "internalType": "uint256",
          "name": "",
          "type": "uint256"
        }
      ],
      "stateMutability": "view",
      "type": "function",
      "constant": true
    },
    {
      "inputs": [
        {
          "internalType": "uint256",
          "name": "tokenId",
          "type": "uint256"
        }
      ],
      "name": "tokenURI",
      "outputs": [
        {
          "internalType": "string",
          "name": "",
          "type": "string"
        }
      ],
      "stateMutability": "view",
      "type": "function",
      "constant": true
    },
    {
      "inputs": [
        {
          "internalType": "uint256",
          "name": "",
          "type": "uint256"
        }
      ],
      "name": "transferEligible",
      "outputs": [
        {
          "internalType": "bool",
          "name": "",
          "type": "bool"
        }
      ],
      "stateMutability": "view",
      "type": "function",
      "constant": true
    },
    {
      "inputs": [
        {
          "internalType": "address",
          "name": "recipient",
          "type": "address"
        },
        {
          "internalType": "string",
          "name": "tokenURI",
          "type": "string"
        },
        {
          "internalType": "uint256",
          "name": "royalty",
          "type": "uint256"
        }
      ],
      "name": "mintNFT",
      "outputs": [
        {
          "internalType": "uint256",
          "name": "",
          "type": "uint256"
        }
      ],
      "stateMutability": "nonpayable",
      "type": "function"
    },
    {
      "inputs": [
        {
          "internalType": "address[]",
          "name": "recipients",
          "type": "address[]"
        },
        {
          "internalType": "string[]",
          "name": "tokenURIs",
          "type": "string[]"
        },
        {
          "internalType": "uint256[]",
          "name": "royalties",
          "type": "uint256[]"
        }
      ],
      "name": "mintMultipleNFTs",
      "outputs": [
        {
          "internalType": "uint256[]",
          "name": "",
          "type": "uint256[]"
        }
      ],
      "stateMutability": "nonpayable",
      "type": "function"
    },
    {
      "inputs": [
        {
          "internalType": "uint256",
          "name": "tokenId",
          "type": "uint256"
        }
      ],
      "name": "enableTransfer",
      "outputs": [],
      "stateMutability": "nonpayable",
      "type": "function"
    },
    {
      "inputs": [
        {
          "internalType": "uint256",
          "name": "tokenId",
          "type": "uint256"
        }
      ],
      "name": "disableTransfer",
      "outputs": [],
      "stateMutability": "nonpayable",
      "type": "function"
    },
    {
      "inputs": [
        {
          "internalType": "uint256",
          "name": "tokenId",
          "type": "uint256"
        }
      ],
      "name": "isTransferEligible",
      "outputs": [
        {
          "internalType": "bool",
          "name": "isEligible",
          "type": "bool"
        }
      ],
      "stateMutability": "view",
      "type": "function",
      "constant": true
    },
    {
      "inputs": [
        {
          "internalType": "uint256",
          "name": "tokenId",
          "type": "uint256"
        },
        {
          "internalType": "uint256",
          "name": "salePrice",
          "type": "uint256"
        }
      ],
      "name": "royaltyInfo",
      "outputs": [
        {
          "internalType": "address",
          "name": "receiver",
          "type": "address"
        },
        {
          "internalType": "uint256",
          "name": "royaltyAmount",
          "type": "uint256"
        }
      ],
      "stateMutability": "view",
      "type": "function",
      "constant": true
    },
    {
      "inputs": [
        {
          "internalType": "address",
          "name": "from",
          "type": "address"
        },
        {
          "internalType": "address",
          "name": "to",
          "type": "address"
        },
        {
          "internalType": "uint256",
          "name": "tokenId",
          "type": "uint256"
        }
      ],
      "name": "transferFrom",
      "outputs": [],
      "stateMutability": "nonpayable",
      "type": "function"
    },
    {
      "inputs": [],
      "name": "getMarketplaceAddress",
      "outputs": [
        {
          "internalType": "address",
          "name": "marketplace",
          "type": "address"
        }
      ],
      "stateMutability": "view",
      "type": "function",
      "constant": true
    },
    {
      "inputs": [
        {
          "internalType": "uint256",
          "name": "tokenId",
          "type": "uint256"
        }
      ],
      "name": "getNFTCreator",
      "outputs": [
        {
          "internalType": "address",
          "name": "creator",
          "type": "address"
        }
      ],
      "stateMutability": "view",
      "type": "function",
      "constant": true
    },
    {
      "inputs": [],
      "name": "getTotalSupply",
      "outputs": [
        {
          "internalType": "uint256",
          "name": "supply",
          "type": "uint256"
        }
      ],
      "stateMutability": "view",
      "type": "function",
      "constant": true
    }
  ],
  "bytecode": "0x608060405234801561001057600080fd5b506040516140303803806140308339818101604052810190610032919061016a565b6040518060400160405280600581526020017f4d794e46540000000000000000000000000000000000000000000000000000008152506040518060400160405280600481526020017f4d4e46540000000000000000000000000000000000000000000000000000000081525081600090816100ad91906103e7565b5080600190816100bd91906103e7565b50505080600c60006101000a81548173ffffffffffffffffffffffffffffffffffffffff021916908373ffffffffffffffffffffffffffffffffffffffff160217905550506104b9565b600080fd5b600073ffffffffffffffffffffffffffffffffffffffff82169050919050565b60006101378261010c565b9050919050565b6101478161012c565b811461015257600080fd5b50565b6000815190506101648161013e565b92915050565b6000602082840312156101805761017f610107565b5b600061018e84828501610155565b91505092915050565b600081519050919050565b7f4e487b7100000000000000000000000000000000000000000000000000000000600052604160045260246000fd5b7f4e487b7100000000000000000000000000000000000000000000000000000000600052602260045260246000fd5b6000600282049050600182168061021857607f821691505b60208210810361022b5761022a6101d1565b5b50919050565b60008190508160005260206000209050919050565b60006020601f8301049050919050565b600082821b905092915050565b6000600883026102937fffffffffffffffffffffffffffffffffffffffffffffffffffffffffffffffff82610256565b61029d8683610256565b95508019841693508086168417925050509392505050565b6000819050919050565b6000819050919050565b60006102e46102df6102da846102b5565b6102bf565b6102b5565b9050919050565b6000819050919050565b6102fe836102c9565b61031261030a826102eb565b848454610263565b825550505050565b600090565b61032761031a565b6103328184846102f5565b505050565b5b818110156103565761034b60008261031f565b600181019050610338565b5050565b601f82111561039b5761036c81610231565b61037584610246565b81016020851015610384578190505b61039861039085610246565b830182610337565b50505b505050565b600082821c905092915050565b60006103be600019846008026103a0565b1980831691505092915050565b60006103d783836103ad565b9150826002028217905092915050565b6103f082610197565b67ffffffffffffffff811115610409576104086101a2565b5b6104138254610200565b61041e82828561035a565b600060209050601f831160018114610451576000841561043f578287015190505b61044985826103cb565b8655506104b1565b601f19841661045f86610231565b60005b8281101561048757848901518255600182019150602085019450602081019050610462565b868310156104a457848901516104a0601f8916826103ad565b8355505b6001600288020188555050505b505050505050565b613b68806104c86000396000f3fe608060405234801561001057600080fd5b50600436106101585760003560e01c806395d89b41116100c3578063c87b56dd1161007c578063c87b56dd146103fe578063cb53b24b1461042e578063cf48c5021461045e578063d5d62cf91461048e578063e59989f5146104be578063e985e9c5146104da57610158565b806395d89b4114610350578063a22cb4651461036e578063b88d4fde1461038a578063bb8fe785146103a6578063c3c88a1d146103c4578063c4e41b22146103e057610158565b80632a55205a116101155780632a55205a146102435780632aa6a682146102745780632ce74fc9146102a457806342842e0e146102d45780636352211e146102f057806370a082311461032057610158565b806301ffc9a71461015d57806306fdde031461018d578063081812fc146101ab57806308598df0146101db578063095ea7b31461020b57806323b872dd14610227575b600080fd5b6101776004803603810190610172919061224c565b61050a565b6040516101849190612294565b60405180910390f35b61019561056b565b6040516101a2919061233f565b60405180910390f35b6101c560048036038101906101c09190612397565b6105fd565b6040516101d29190612405565b60405180910390f35b6101f560048036038101906101f09190612581565b610643565b60405161020291906125ff565b60405180910390f35b6102256004803603810190610220919061261a565b61080b565b005b610241600480360381019061023c919061265a565b610922565b005b61025d600480360381019061025891906126ad565b610992565b60405161026b9291906126ed565b60405180910390f35b61028e60048036038101906102899190612982565b610a06565b60405161029b9190612ae7565b60405180910390f35b6102be60048036038101906102b99190612397565b610be4565b6040516102cb9190612405565b60405180910390f35b6102ee60048036038101906102e9919061265a565b610c21565b005b61030a60048036038101906103059190612397565b610c41565b6040516103179190612405565b60405180910390f35b61033a60048036038101906103359190612b09565b610cc7565b60405161034791906125ff565b60405180910390f35b610358610d7e565b604051610365919061233f565b60405180910390f35b61038860048036038101906103839190612b62565b610e10565b005b6103a4600480360381019061039f9190612c43565b610e26565b005b6103ae610e88565b6040516103bb9190612405565b60405180910390f35b6103de60048036038101906103d99190612397565b610eb2565b005b6103e8610f59565b6040516103f591906125ff565b60405180910390f35b61041860048036038101906104139190612397565b610f6a565b604051610425919061233f565b60405180910390f35b61044860048036038101906104439190612397565b61107c565b60405161045591906125ff565b60405180910390f35b61047860048036038101906104739190612397565b611094565b6040516104859190612294565b60405180910390f35b6104a860048036038101906104a39190612397565b6110b4565b6040516104b59190612294565b60405180910390f35b6104d860048036038101906104d39190612397565b6110de565b005b6104f460048036038101906104ef9190612cc6565b611185565b6040516105019190612294565b60405180910390f35b6000634906490660e01b7bffffffffffffffffffffffffffffffffffffffffffffffffffffffff1916827bffffffffffffffffffffffffffffffffffffffffffffffffffffffff19161480610564575061056382611219565b5b9050919050565b60606000805461057a90612d35565b80601f01602080910402602001604051908101604052809291908181526020018280546105a690612d35565b80156105f35780601f106105c8576101008083540402835291602001916105f3565b820191906000526020600020905b8154815290600101906020018083116105d657829003601f168201915b5050505050905090565b6000610608826112fb565b6004600083815260200190815260200160002060009054906101000a900473ffffffffffffffffffffffffffffffffffffffff169050919050565b60006008836040516106559190612da2565b908152602001604051809103902060009054906101000a900460ff16156106b1576040517f08c379a00000000000000000000000000000000000000000000000000000000081526004016106a890612e05565b60405180910390fd5b6106bb6007611346565b60006106c7600761135c565b90506106d3858261136a565b6106dd8185611587565b846009600083815260200190815260200160002060006101000a81548173ffffffffffffffffffffffffffffffffffffffff021916908373ffffffffffffffffffffffffffffffffffffffff16021790555082600b6000838152602001908152602001600020819055506001600a600083815260200190815260200160002060006101000a81548160ff0219169083151502179055506107a0600c60009054906101000a900473ffffffffffffffffffffffffffffffffffffffff166001610e10565b807f7161af571a01ecb837a90cf054b76586793eb94f7f7f869acc882241beb8ac06858786600c60009054906101000a900473ffffffffffffffffffffffffffffffffffffffff166040516107f89493929190612e25565b60405180910390a2809150509392505050565b600061081682610c41565b90508073ffffffffffffffffffffffffffffffffffffffff168373ffffffffffffffffffffffffffffffffffffffff1603610886576040517f08c379a000000000000000000000000000000000000000000000000000000000815260040161087d90612ee3565b60405180910390fd5b8073ffffffffffffffffffffffffffffffffffffffff166108a561162b565b73ffffffffffffffffffffffffffffffffffffffff1614806108d457506108d3816108ce61162b565b611185565b5b610913576040517f08c379a000000000000000000000000000000000000000000000000000000000815260040161090a90612f75565b60405180910390fd5b61091d8383611633565b505050565b600a600082815260200190815260200160002060009054906101000a900460ff16610982576040517f08c379a000000000000000000000000000000000000000000000000000000000815260040161097990613007565b60405180910390fd5b61098d8383836116ec565b505050565b6000806000600b60008681526020019081526020016000205490506009600086815260200190815260200160002060009054906101000a900473ffffffffffffffffffffffffffffffffffffffff1661271082866109f09190613056565b6109fa91906130c7565b92509250509250929050565b606082518451148015610a1a575081518351145b610a59576040517f08c379a0000000000000000000000000000000000000000000000000000000008152600401610a509061316a565b60405180910390fd5b60005b8351811015610af8576008848281518110610a7a57610a7961318a565b5b6020026020010151604051610a8f9190612da2565b908152602001604051809103902060009054906101000a900460ff1615610aeb576040517f08c379a0000000000000000000000000000000000000000000000000000000008152600401610ae290613205565b60405180910390fd5b8080600101915050610a5c565b506000835167ffffffffffffffff811115610b1657610b15612456565b5b604051908082528060200260200182016040528015610b445781602001602082028036833780820191505090505b50905060005b8451811015610bd857610bac868281518110610b6957610b6861318a565b5b6020026020010151868381518110610b8457610b8361318a565b5b6020026020010151868481518110610b9f57610b9e61318a565b5b6020026020010151610643565b828281518110610bbf57610bbe61318a565b5b6020026020010181815250508080600101915050610b4a565b50809150509392505050565b60006009600083815260200190815260200160002060009054906101000a900473ffffffffffffffffffffffffffffffffffffffff169050919050565b610c3c83838360405180602001604052806000815250610e26565b505050565b600080610c4d8361174c565b9050600073ffffffffffffffffffffffffffffffffffffffff168173ffffffffffffffffffffffffffffffffffffffff1603610cbe576040517f08c379a0000000000000000000000000000000000000000000000000000000008152600401610cb590613271565b60405180910390fd5b80915050919050565b60008073ffffffffffffffffffffffffffffffffffffffff168273ffffffffffffffffffffffffffffffffffffffff1603610d37576040517f08c379a0000000000000000000000000000000000000000000000000000000008152600401610d2e90613303565b60405180910390fd5b600360008373ffffffffffffffffffffffffffffffffffffffff1673ffffffffffffffffffffffffffffffffffffffff168152602001908152602001600020549050919050565b606060018054610d8d90612d35565b80601f0160208091040260200160405190810160405280929190818152602001828054610db990612d35565b8015610e065780601f10610ddb57610100808354040283529160200191610e06565b820191906000526020600020905b815481529060010190602001808311610de957829003601f168201915b5050505050905090565b610e22610e1b61162b565b8383611789565b5050565b610e37610e3161162b565b836118f5565b610e76576040517f08c379a0000000000000000000000000000000000000000000000000000000008152600401610e6d90613395565b60405180910390fd5b610e828484848461198a565b50505050565b6000600c60009054906101000a900473ffffffffffffffffffffffffffffffffffffffff16905090565b80610ebc81610c41565b73ffffffffffffffffffffffffffffffffffffffff163373ffffffffffffffffffffffffffffffffffffffff1614610f29576040517f08c379a0000000000000000000000000000000000000000000000000000000008152600401610f2090613401565b60405180910390fd5b6000600a600084815260200190815260200160002060006101000a81548160ff0219169083151502179055505050565b6000610f65600761135c565b905090565b6060610f75826112fb565b6000600660008481526020019081526020016000208054610f9590612d35565b80601f0160208091040260200160405190810160405280929190818152602001828054610fc190612d35565b801561100e5780601f10610fe35761010080835404028352916020019161100e565b820191906000526020600020905b815481529060010190602001808311610ff157829003601f168201915b50505050509050600061101f6119e6565b90506000815103611034578192505050611077565b600082511115611069578082604051602001611051929190613421565b60405160208183030381529060405292505050611077565b611072846119fd565b925050505b919050565b600b6020528060005260406000206000915090505481565b600a6020528060005260406000206000915054906101000a900460ff1681565b6000600a600083815260200190815260200160002060009054906101000a900460ff169050919050565b806110e881610c41565b73ffffffffffffffffffffffffffffffffffffffff163373ffffffffffffffffffffffffffffffffffffffff1614611155576040517f08c379a000000000000000000000000000000000000000000000000000000000815260040161114c90613401565b60405180910390fd5b6001600a600084815260200190815260200160002060006101000a81548160ff0219169083151502179055505050565b6000600560008473ffffffffffffffffffffffffffffffffffffffff1673ffffffffffffffffffffffffffffffffffffffff16815260200190815260200160002060008373ffffffffffffffffffffffffffffffffffffffff1673ffffffffffffffffffffffffffffffffffffffff16815260200190815260200160002060009054906101000a900460ff16905092915050565b60007f80ac58cd000000000000000000000000000000000000000000000000000000007bffffffffffffffffffffffffffffffffffffffffffffffffffffffff1916827bffffffffffffffffffffffffffffffffffffffffffffffffffffffff191614806112e457507f5b5e139f000000000000000000000000000000000000000000000000000000007bffffffffffffffffffffffffffffffffffffffffffffffffffffffff1916827bffffffffffffffffffffffffffffffffffffffffffffffffffffffff1916145b806112f457506112f382611a65565b5b9050919050565b61130481611acf565b611343576040517f08c379a000000000000000000000000000000000000000000000000000000000815260040161133a90613271565b60405180910390fd5b50565b6001816000016000828254019250508190555050565b600081600001549050919050565b600073ffffffffffffffffffffffffffffffffffffffff168273ffffffffffffffffffffffffffffffffffffffff16036113d9576040517f08c379a00000000000000000000000000000000000000000000000000000000081526004016113d090613491565b60405180910390fd5b6113e281611acf565b15611422576040517f08c379a0000000000000000000000000000000000000000000000000000000008152600401611419906134fd565b60405180910390fd5b611430600083836001611b10565b61143981611acf565b15611479576040517f08c379a0000000000000000000000000000000000000000000000000000000008152600401611470906134fd565b60405180910390fd5b6001600360008473ffffffffffffffffffffffffffffffffffffffff1673ffffffffffffffffffffffffffffffffffffffff16815260200190815260200160002060008282540192505081905550816002600083815260200190815260200160002060006101000a81548173ffffffffffffffffffffffffffffffffffffffff021916908373ffffffffffffffffffffffffffffffffffffffff160217905550808273ffffffffffffffffffffffffffffffffffffffff16600073ffffffffffffffffffffffffffffffffffffffff167fddf252ad1be2c89b69c2b068fc378daa952ba7f163c4a11628f55a4df523b3ef60405160405180910390a4611583600083836001611b16565b5050565b61159082611acf565b6115cf576040517f08c379a00000000000000000000000000000000000000000000000000000000081526004016115c69061358f565b60405180910390fd5b806006600084815260200190815260200160002090816115ef919061375b565b507ff8e1a15aba9398e019f0b49df1a4fde98ee17ae345cb5f6b5e2c27f5033e8ce78260405161161f91906125ff565b60405180910390a15050565b600033905090565b816004600083815260200190815260200160002060006101000a81548173ffffffffffffffffffffffffffffffffffffffff021916908373ffffffffffffffffffffffffffffffffffffffff160217905550808273ffffffffffffffffffffffffffffffffffffffff166116a683610c41565b73ffffffffffffffffffffffffffffffffffffffff167f8c5be1e5ebec7d5bd14f71427d1e84f3dd0314c0f7b2291e5b200ac8c7c3b92560405160405180910390a45050565b6116fd6116f761162b565b826118f5565b61173c576040517f08c379a000000000000000000000000000000000000000000000000000000000815260040161173390613395565b60405180910390fd5b611747838383611b1c565b505050565b60006002600083815260200190815260200160002060009054906101000a900473ffffffffffffffffffffffffffffffffffffffff169050919050565b8173ffffffffffffffffffffffffffffffffffffffff168373ffffffffffffffffffffffffffffffffffffffff16036117f7576040517f08c379a00000000000000000000000000000000000000000000000000000000081526004016117ee90613879565b60405180910390fd5b80600560008573ffffffffffffffffffffffffffffffffffffffff1673ffffffffffffffffffffffffffffffffffffffff16815260200190815260200160002060008473ffffffffffffffffffffffffffffffffffffffff1673ffffffffffffffffffffffffffffffffffffffff16815260200190815260200160002060006101000a81548160ff0219169083151502179055508173ffffffffffffffffffffffffffffffffffffffff168373ffffffffffffffffffffffffffffffffffffffff167f17307eab39ab6107e8899845ad3d59bd9653f200f220920489ca2b5937696c31836040516118e89190612294565b60405180910390a3505050565b60008061190183610c41565b90508073ffffffffffffffffffffffffffffffffffffffff168473ffffffffffffffffffffffffffffffffffffffff16148061194357506119428185611185565b5b8061198157508373ffffffffffffffffffffffffffffffffffffffff16611969846105fd565b73ffffffffffffffffffffffffffffffffffffffff16145b91505092915050565b611995848484611b1c565b6119a184848484611e15565b6119e0576040517f08c379a00000000000000000000000000000000000000000000000000000000081526004016119d79061390b565b60405180910390fd5b50505050565b606060405180602001604052806000815250905090565b6060611a08826112fb565b6000611a126119e6565b90506000815111611a325760405180602001604052806000815250611a5d565b80611a3c84611f9c565b604051602001611a4d929190613421565b6040516020818303038152906040525b915050919050565b60007f01ffc9a7000000000000000000000000000000000000000000000000000000007bffffffffffffffffffffffffffffffffffffffffffffffffffffffff1916827bffffffffffffffffffffffffffffffffffffffffffffffffffffffff1916149050919050565b60008073ffffffffffffffffffffffffffffffffffffffff16611af18361174c565b73ffffffffffffffffffffffffffffffffffffffff1614159050919050565b50505050565b50505050565b8273ffffffffffffffffffffffffffffffffffffffff16611b3c82610c41565b73ffffffffffffffffffffffffffffffffffffffff1614611b92576040517f08c379a0000000000000000000000000000000000000000000000000000000008152600401611b899061399d565b60405180910390fd5b600073ffffffffffffffffffffffffffffffffffffffff168273ffffffffffffffffffffffffffffffffffffffff1603611c01576040517f08c379a0000000000000000000000000000000000000000000000000000000008152600401611bf890613a2f565b60405180910390fd5b611c0e8383836001611b10565b8273ffffffffffffffffffffffffffffffffffffffff16611c2e82610c41565b73ffffffffffffffffffffffffffffffffffffffff1614611c84576040517f08c379a0000000000000000000000000000000000000000000000000000000008152600401611c7b9061399d565b60405180910390fd5b6004600082815260200190815260200160002060006101000a81549073ffffffffffffffffffffffffffffffffffffffff02191690556001600360008573ffffffffffffffffffffffffffffffffffffffff1673ffffffffffffffffffffffffffffffffffffffff168152602001908152602001600020600082825403925050819055506001600360008473ffffffffffffffffffffffffffffffffffffffff1673ffffffffffffffffffffffffffffffffffffffff16815260200190815260200160002060008282540192505081905550816002600083815260200190815260200160002060006101000a81548173ffffffffffffffffffffffffffffffffffffffff021916908373ffffffffffffffffffffffffffffffffffffffff160217905550808273ffffffffffffffffffffffffffffffffffffffff168473ffffffffffffffffffffffffffffffffffffffff167fddf252ad1be2c89b69c2b068fc378daa952ba7f163c4a11628f55a4df523b3ef60405160405180910390a4611e108383836001611b16565b505050565b6000611e368473ffffffffffffffffffffffffffffffffffffffff1661206a565b15611f8f578373ffffffffffffffffffffffffffffffffffffffff1663150b7a02611e5f61162b565b8786866040518563ffffffff1660e01b8152600401611e819493929190613aa4565b6020604051808303816000875af1925050508015611ebd57506040513d601f19601f82011682018060405250810190611eba9190613b05565b60015b611f3f573d8060008114611eed576040519150601f19603f3d011682016040523d82523d6000602084013e611ef2565b606091505b506000815103611f37576040517f08c379a0000000000000000000000000000000000000000000000000000000008152600401611f2e9061390b565b60405180910390fd5b805181602001fd5b63150b7a0260e01b7bffffffffffffffffffffffffffffffffffffffffffffffffffffffff1916817bffffffffffffffffffffffffffffffffffffffffffffffffffffffff191614915050611f94565b600190505b949350505050565b606060006001611fab8461208d565b01905060008167ffffffffffffffff811115611fca57611fc9612456565b5b6040519080825280601f01601f191660200182016040528015611ffc5781602001600182028036833780820191505090505b509050600082602001820190505b60011561205f578080600190039150507f3031323334353637383961626364656600000000000000000000000000000000600a86061a8153600a858161205357612052613098565b5b0494506000850361200a575b819350505050919050565b6000808273ffffffffffffffffffffffffffffffffffffffff163b119050919050565b600080600090507a184f03e93ff9f4daa797ed6e38ed64bf6a1f01000000000000000083106120eb577a184f03e93ff9f4daa797ed6e38ed64bf6a1f01000000000000000083816120e1576120e0613098565b5b0492506040810190505b6d04ee2d6d415b85acef81000000008310612128576d04ee2d6d415b85acef8100000000838161211e5761211d613098565b5b0492506020810190505b662386f26fc10000831061215757662386f26fc10000838161214d5761214c613098565b5b0492506010810190505b6305f5e1008310612180576305f5e100838161217657612175613098565b5b0492506008810190505b61271083106121a557612710838161219b5761219a613098565b5b0492506004810190505b606483106121c857606483816121be576121bd613098565b5b0492506002810190505b600a83106121d7576001810190505b80915050919050565b6000604051905090565b600080fd5b600080fd5b60007fffffffff0000000000000000000000000000000000000000000000000000000082169050919050565b612229816121f4565b811461223457600080fd5b50565b60008135905061224681612220565b92915050565b600060208284031215612262576122616121ea565b5b600061227084828501612237565b91505092915050565b60008115159050919050565b61228e81612279565b82525050565b60006020820190506122a96000830184612285565b92915050565b600081519050919050565b600082825260208201905092915050565b60005b838110156122e95780820151818401526020810190506122ce565b60008484015250505050565b6000601f19601f8301169050919050565b6000612311826122af565b61231b81856122ba565b935061232b8185602086016122cb565b612334816122f5565b840191505092915050565b600060208201905081810360008301526123598184612306565b905092915050565b6000819050919050565b61237481612361565b811461237f57600080fd5b50565b6000813590506123918161236b565b92915050565b6000602082840312156123ad576123ac6121ea565b5b60006123bb84828501612382565b91505092915050565b600073ffffffffffffffffffffffffffffffffffffffff82169050919050565b60006123ef826123c4565b9050919050565b6123ff816123e4565b82525050565b600060208201905061241a60008301846123f6565b92915050565b612429816123e4565b811461243457600080fd5b50565b60008135905061244681612420565b92915050565b600080fd5b600080fd5b7f4e487b7100000000000000000000000000000000000000000000000000000000600052604160045260246000fd5b61248e826122f5565b810181811067ffffffffffffffff821117156124ad576124ac612456565b5b80604052505050565b60006124c06121e0565b90506124cc8282612485565b919050565b600067ffffffffffffffff8211156124ec576124eb612456565b5b6124f5826122f5565b9050602081019050919050565b82818337600083830152505050565b600061252461251f846124d1565b6124b6565b9050828152602081018484840111156125405761253f612451565b5b61254b848285612502565b509392505050565b600082601f8301126125685761256761244c565b5b8135612578848260208601612511565b91505092915050565b60008060006060848603121561259a576125996121ea565b5b60006125a886828701612437565b935050602084013567ffffffffffffffff8111156125c9576125c86121ef565b5b6125d586828701612553565b92505060406125e686828701612382565b9150509250925092565b6125f981612361565b82525050565b600060208201905061261460008301846125f0565b92915050565b60008060408385031215612631576126306121ea565b5b600061263f85828601612437565b925050602061265085828601612382565b9150509250929050565b600080600060608486031215612673576126726121ea565b5b600061268186828701612437565b935050602061269286828701612437565b92505060406126a386828701612382565b9150509250925092565b600080604083850312156126c4576126c36121ea565b5b60006126d285828601612382565b92505060206126e385828601612382565b9150509250929050565b600060408201905061270260008301856123f6565b61270f60208301846125f0565b9392505050565b600067ffffffffffffffff82111561273157612730612456565b5b602082029050602081019050919050565b600080fd5b600061275a61275584612716565b6124b6565b9050808382526020820190506020840283018581111561277d5761277c612742565b5b835b818110156127a657806127928882612437565b84526020840193505060208101905061277f565b5050509392505050565b600082601f8301126127c5576127c461244c565b5b81356127d5848260208601612747565b91505092915050565b600067ffffffffffffffff8211156127f9576127f8612456565b5b602082029050602081019050919050565b600061281d612818846127de565b6124b6565b905080838252602082019050602084028301858111156128405761283f612742565b5b835b8181101561288757803567ffffffffffffffff8111156128655761286461244c565b5b8086016128728982612553565b85526020850194505050602081019050612842565b5050509392505050565b600082601f8301126128a6576128a561244c565b5b81356128b684826020860161280a565b91505092915050565b600067ffffffffffffffff8211156128da576128d9612456565b5b602082029050602081019050919050565b60006128fe6128f9846128bf565b6124b6565b9050808382526020820190506020840283018581111561292157612920612742565b5b835b8181101561294a57806129368882612382565b845260208401935050602081019050612923565b5050509392505050565b600082601f8301126129695761296861244c565b5b81356129798482602086016128eb565b91505092915050565b60008060006060848603121561299b5761299a6121ea565b5b600084013567ffffffffffffffff8111156129b9576129b86121ef565b5b6129c5868287016127b0565b935050602084013567ffffffffffffffff8111156129e6576129e56121ef565b5b6129f286828701612891565b925050604084013567ffffffffffffffff811115612a1357612a126121ef565b5b612a1f86828701612954565b9150509250925092565b600081519050919050565b600082825260208201905092915050565b6000819050602082019050919050565b612a5e81612361565b82525050565b6000612a708383612a55565b60208301905092915050565b6000602082019050919050565b6000612a9482612a29565b612a9e8185612a34565b9350612aa983612a45565b8060005b83811015612ada578151612ac18882612a64565b9750612acc83612a7c565b925050600181019050612aad565b5085935050505092915050565b60006020820190508181036000830152612b018184612a89565b905092915050565b600060208284031215612b1f57612b1e6121ea565b5b6000612b2d84828501612437565b91505092915050565b612b3f81612279565b8114612b4a57600080fd5b50565b600081359050612b5c81612b36565b92915050565b60008060408385031215612b7957612b786121ea565b5b6000612b8785828601612437565b9250506020612b9885828601612b4d565b9150509250929050565b600067ffffffffffffffff821115612bbd57612bbc612456565b5b612bc6826122f5565b9050602081019050919050565b6000612be6612be184612ba2565b6124b6565b905082815260208101848484011115612c0257612c01612451565b5b612c0d848285612502565b509392505050565b600082601f830112612c2a57612c2961244c565b5b8135612c3a848260208601612bd3565b91505092915050565b60008060008060808587031215612c5d57612c5c6121ea565b5b6000612c6b87828801612437565b9450506020612c7c87828801612437565b9350506040612c8d87828801612382565b925050606085013567ffffffffffffffff811115612cae57612cad6121ef565b5b612cba87828801612c15565b91505092959194509250565b60008060408385031215612cdd57612cdc6121ea565b5b6000612ceb85828601612437565b9250506020612cfc85828601612437565b9150509250929050565b7f4e487b7100000000000000000000000000000000000000000000000000000000600052602260045260246000fd5b60006002820490506001821680612d4d57607f821691505b602082108103612d6057612d5f612d06565b5b50919050565b600081905092915050565b6000612d7c826122af565b612d868185612d66565b9350612d968185602086016122cb565b80840191505092915050565b6000612dae8284612d71565b915081905092915050565b7f54686520746f6b656e20555249206973206e6f7420756e697175650000000000600082015250565b6000612def601b836122ba565b9150612dfa82612db9565b602082019050919050565b60006020820190508181036000830152612e1e81612de2565b9050919050565b60006080820190508181036000830152612e3f8187612306565b9050612e4e60208301866123f6565b612e5b60408301856125f0565b612e6860608301846123f6565b95945050505050565b7f4552433732313a20617070726f76616c20746f2063757272656e74206f776e6560008201527f7200000000000000000000000000000000000000000000000000000000000000602082015250565b6000612ecd6021836122ba565b9150612ed882612e71565b604082019050919050565b60006020820190508181036000830152612efc81612ec0565b9050919050565b7f4552433732313a20617070726f76652063616c6c6572206973206e6f7420746f60008201527f6b656e206f776e6572206f7220617070726f76656420666f7220616c6c000000602082015250565b6000612f5f603d836122ba565b9150612f6a82612f03565b604082019050919050565b60006020820190508181036000830152612f8e81612f52565b9050919050565b7f5468697320746f6b656e206973206e6f7420656c696769626c6520666f72207460008201527f72616e7366657200000000000000000000000000000000000000000000000000602082015250565b6000612ff16027836122ba565b9150612ffc82612f95565b604082019050919050565b6000602082019050818103600083015261302081612fe4565b9050919050565b7f4e487b7100000000000000000000000000000000000000000000000000000000600052601160045260246000fd5b600061306182612361565b915061306c83612361565b925082820261307a81612361565b9150828204841483151761309157613090613027565b5b5092915050565b7f4e487b7100000000000000000000000000000000000000000000000000000000600052601260045260246000fd5b60006130d282612361565b91506130dd83612361565b9250826130ed576130ec613098565b5b828204905092915050565b7f526563697065696e74732c205552497320616e6420726f79616c74696573206c60008201527f656e677468206d69736d61746368000000000000000000000000000000000000602082015250565b6000613154602e836122ba565b915061315f826130f8565b604082019050919050565b6000602082019050818103600083015261318381613147565b9050919050565b7f4e487b7100000000000000000000000000000000000000000000000000000000600052603260045260246000fd5b7f54686520746f6b656e205552497320617265206e6f7420756e69717565000000600082015250565b60006131ef601d836122ba565b91506131fa826131b9565b602082019050919050565b6000602082019050818103600083015261321e816131e2565b9050919050565b7f4552433732313a20696e76616c696420746f6b656e2049440000000000000000600082015250565b600061325b6018836122ba565b915061326682613225565b602082019050919050565b6000602082019050818103600083015261328a8161324e565b9050919050565b7f4552433732313a2061646472657373207a65726f206973206e6f74206120766160008201527f6c6964206f776e65720000000000000000000000000000000000000000000000602082015250565b60006132ed6029836122ba565b91506132f882613291565b604082019050919050565b6000602082019050818103600083015261331c816132e0565b9050919050565b7f4552433732313a2063616c6c6572206973206e6f7420746f6b656e206f776e6560008201527f72206f7220617070726f76656400000000000000000000000000000000000000602082015250565b600061337f602d836122ba565b915061338a82613323565b604082019050919050565b600060208201905081810360008301526133ae81613372565b9050919050565b7f43616c6c6572206973206e6f7420746865204e4654206f776e65720000000000600082015250565b60006133eb601b836122ba565b91506133f6826133b5565b602082019050919050565b6000602082019050818103600083015261341a816133de565b9050919050565b600061342d8285612d71565b91506134398284612d71565b91508190509392505050565b7f4552433732313a206d696e7420746f20746865207a65726f2061646472657373600082015250565b600061347b6020836122ba565b915061348682613445565b602082019050919050565b600060208201905081810360008301526134aa8161346e565b9050919050565b7f4552433732313a20746f6b656e20616c7265616479206d696e74656400000000600082015250565b60006134e7601c836122ba565b91506134f2826134b1565b602082019050919050565b60006020820190508181036000830152613516816134da565b9050919050565b7f45524337323155524953746f726167653a2055524920736574206f66206e6f6e60008201527f6578697374656e7420746f6b656e000000000000000000000000000000000000602082015250565b6000613579602e836122ba565b91506135848261351d565b604082019050919050565b600060208201905081810360008301526135a88161356c565b9050919050565b60008190508160005260206000209050919050565b60006020601f8301049050919050565b600082821b905092915050565b6000600883026136117fffffffffffffffffffffffffffffffffffffffffffffffffffffffffffffffff826135d4565b61361b86836135d4565b95508019841693508086168417925050509392505050565b6000819050919050565b600061365861365361364e84612361565b613633565b612361565b9050919050565b6000819050919050565b6136728361363d565b61368661367e8261365f565b8484546135e1565b825550505050565b600090565b61369b61368e565b6136a6818484613669565b505050565b5b818110156136ca576136bf600082613693565b6001810190506136ac565b5050565b601f82111561370f576136e0816135af565b6136e9846135c4565b810160208510156136f8578190505b61370c613704856135c4565b8301826136ab565b50505b505050565b600082821c905092915050565b600061373260001984600802613714565b1980831691505092915050565b600061374b8383613721565b9150826002028217905092915050565b613764826122af565b67ffffffffffffffff81111561377d5761377c612456565b5b6137878254612d35565b6137928282856136ce565b600060209050601f8311600181146137c557600084156137b3578287015190505b6137bd858261373f565b865550613825565b601f1984166137d3866135af565b60005b828110156137fb578489015182556001820191506020850194506020810190506137d6565b868310156138185784890151613814601f891682613721565b8355505b6001600288020188555050505b505050505050565b7f4552433732313a20617070726f766520746f2063616c6c657200000000000000600082015250565b60006138636019836122ba565b915061386e8261382d565b602082019050919050565b6000602082019050818103600083015261389281613856565b9050919050565b7f4552433732313a207472616e7366657220746f206e6f6e20455243373231526560008201527f63656976657220696d706c656d656e7465720000000000000000000000000000602082015250565b60006138f56032836122ba565b915061390082613899565b604082019050919050565b60006020820190508181036000830152613924816138e8565b9050919050565b7f4552433732313a207472616e736665722066726f6d20696e636f72726563742060008201527f6f776e6572000000000000000000000000000000000000000000000000000000602082015250565b60006139876025836122ba565b91506139928261392b565b604082019050919050565b600060208201905081810360008301526139b68161397a565b9050919050565b7f4552433732313a207472616e7366657220746f20746865207a65726f2061646460008201527f7265737300000000000000000000000000000000000000000000000000000000602082015250565b6000613a196024836122ba565b9150613a24826139bd565b604082019050919050565b60006020820190508181036000830152613a4881613a0c565b9050919050565b600081519050919050565b600082825260208201905092915050565b6000613a7682613a4f565b613a808185613a5a565b9350613a908185602086016122cb565b613a99816122f5565b840191505092915050565b6000608082019050613ab960008301876123f6565b613ac660208301866123f6565b613ad360408301856125f0565b8181036060830152613ae58184613a6b565b905095945050505050565b600081519050613aff81612220565b92915050565b600060208284031215613b1b57613b1a6121ea565b5b6000613b2984828501613af0565b9150509291505056fea2646970667358221220c14d335e45ff32acb832743a1a76bdfc3af0934d1add2c3d9491276878cbb55264736f6c63430008190033",
  "immutableReferences": {},
  "source": "// SPDX-License-Identifier: MIT\npragma solidity ^0.8.0;\n\nimport \"@openzeppelin/contracts/token/ERC721/extensions/ERC721URIStorage.sol\";\nimport \"@openzeppelin/contracts/interfaces/IERC2981.sol\";\nimport \"@openzeppelin/contracts/utils/Counters.sol\";\n\ncontract NFT is ERC721URIStorage, IERC2981 {\n    using Counters for Counters.Counter;\n    Counters.Counter private tokenIds;\n\n    mapping(string => bool) tokenURIExists;\n\n    mapping(uint256 => address) private nftCreators;\n\n    mapping(uint256 => bool) public transferEligible;\n\n    mapping(uint256 => uint256) public tokenRoyalties;\n\n    address private marketplaceAddress;\n\n    event TokenMinted(\n        uint256 indexed tokenId,\n        string tokenURI,\n        address recipient,\n        uint256 royalty,\n        address marketplaceAddress\n    );\n\n    modifier onlyNFTOwner(uint256 tokenId) {\n        require(msg.sender == ownerOf(tokenId), \"Caller is not the NFT owner\");\n        _;\n    }\n\n    constructor(address _marketplaceAddress) ERC721(\"MyNFT\", \"MNFT\") {\n        marketplaceAddress = _marketplaceAddress;\n    }\n\n    function mintNFT(\n        address recipient,\n        string memory tokenURI,\n        uint256 royalty\n    ) public returns (uint256) {\n        require(!tokenURIExists[tokenURI], 'The token URI is not unique');\n        tokenIds.increment();\n        uint256 newItemId = tokenIds.current();\n        _mint(recipient, newItemId);\n        _setTokenURI(newItemId, tokenURI);\n\n        nftCreators[newItemId] = recipient;\n        tokenRoyalties[newItemId] = royalty;\n        transferEligible[newItemId] = true;\n\n        setApprovalForAll(marketplaceAddress, true);\n\n        emit TokenMinted(\n            newItemId,\n            tokenURI,\n            recipient,\n            royalty,\n            marketplaceAddress\n        );\n        return newItemId;\n    }\n\n    function mintMultipleNFTs(\n        address[] memory recipients,\n        string[] memory tokenURIs,\n        uint256[] memory royalties\n    ) public returns (uint256[] memory) {\n        require(\n            recipients.length == tokenURIs.length && tokenURIs.length == royalties.length,\n            \"Recipeints, URIs and royalties length mismatch\"\n        );\n\n        for (uint i = 0; i < tokenURIs.length; i++) {\n            require(!tokenURIExists[tokenURIs[i]], 'The token URIs are not unique');\n        }\n\n        uint256[] memory newItemId = new uint256[](tokenURIs.length);\n\n        for (uint i = 0; i < tokenURIs.length; i++) {\n            newItemId[i] = mintNFT(recipients[i], tokenURIs[i], royalties[i]);\n        }\n\n        return newItemId;\n    }\n\n    function enableTransfer(uint256 tokenId) public onlyNFTOwner(tokenId) {\n        transferEligible[tokenId] = true;\n    }\n\n    function disableTransfer(uint256 tokenId) public onlyNFTOwner(tokenId) {\n        transferEligible[tokenId] = false;\n    }\n\n    function isTransferEligible(\n        uint256 tokenId\n    ) external view returns (bool isEligible) {\n        return transferEligible[tokenId];\n    }\n\n    function royaltyInfo(\n        uint256 tokenId,\n        uint256 salePrice\n    ) external view override returns (address receiver, uint256 royaltyAmount) {\n        uint256 royalty = tokenRoyalties[tokenId];\n        return (nftCreators[tokenId], (salePrice * royalty) / 10000);\n    }\n\n    function transferFrom(\n        address from,\n        address to,\n        uint256 tokenId\n    ) public override(IERC721, ERC721) {\n        require(\n            transferEligible[tokenId],\n            \"This token is not eligible for transfer\"\n        );\n        super.transferFrom(from, to, tokenId);\n    }\n\n    function getMarketplaceAddress()\n        external\n        view\n        returns (address marketplace)\n    {\n        return marketplaceAddress;\n    }\n\n    function getNFTCreator(uint256 tokenId) \n        external\n        view\n        returns (address creator)\n    {\n        return nftCreators[tokenId];\n    }\n\n    function getTotalSupply()\n        external\n        view\n        returns (uint256 supply)\n    {\n        return tokenIds.current();\n    }\n\n}\n",
  "sourcePath": "/Users/manishagoyal/Desktop/nft-marketplace-dapp/contracts/NFT.sol",
  "compiler": {
    "name": "solc",
    "version": "0.8.25+commit.b61c2a91.Emscripten.clang"
  },
  "schemaVersion": "3.4.16",
  "updatedAt": "2024-04-03T08:16:03.134Z",
  "networkType": "ethereum",
  "devdoc": {
    "events": {
      "Approval(address,address,uint256)": {
        "details": "Emitted when `owner` enables `approved` to manage the `tokenId` token."
      },
      "ApprovalForAll(address,address,bool)": {
        "details": "Emitted when `owner` enables or disables (`approved`) `operator` to manage all of its assets."
      },
      "BatchMetadataUpdate(uint256,uint256)": {
        "details": "This event emits when the metadata of a range of tokens is changed. So that the third-party platforms such as NFT market could timely update the images and related attributes of the NFTs."
      },
      "MetadataUpdate(uint256)": {
        "details": "This event emits when the metadata of a token is changed. So that the third-party platforms such as NFT market could timely update the images and related attributes of the NFT."
      },
      "Transfer(address,address,uint256)": {
        "details": "Emitted when `tokenId` token is transferred from `from` to `to`."
      }
    },
    "kind": "dev",
    "methods": {
      "approve(address,uint256)": {
        "details": "See {IERC721-approve}."
      },
      "balanceOf(address)": {
        "details": "See {IERC721-balanceOf}."
      },
      "getApproved(uint256)": {
        "details": "See {IERC721-getApproved}."
      },
      "isApprovedForAll(address,address)": {
        "details": "See {IERC721-isApprovedForAll}."
      },
      "name()": {
        "details": "See {IERC721Metadata-name}."
      },
      "ownerOf(uint256)": {
        "details": "See {IERC721-ownerOf}."
      },
      "royaltyInfo(uint256,uint256)": {
        "details": "Returns how much royalty is owed and to whom, based on a sale price that may be denominated in any unit of exchange. The royalty amount is denominated and should be paid in that same unit of exchange."
      },
      "safeTransferFrom(address,address,uint256)": {
        "details": "See {IERC721-safeTransferFrom}."
      },
      "safeTransferFrom(address,address,uint256,bytes)": {
        "details": "See {IERC721-safeTransferFrom}."
      },
      "setApprovalForAll(address,bool)": {
        "details": "See {IERC721-setApprovalForAll}."
      },
      "supportsInterface(bytes4)": {
        "details": "See {IERC165-supportsInterface}"
      },
      "symbol()": {
        "details": "See {IERC721Metadata-symbol}."
      },
      "tokenURI(uint256)": {
        "details": "See {IERC721Metadata-tokenURI}."
      }
    },
    "version": 1
  },
  "userdoc": {
    "kind": "user",
    "methods": {},
    "version": 1
  }
}