{
  "contractName": "NFTMarketplace",
  "abi": [
    {
      "inputs": [],
      "stateMutability": "nonpayable",
      "type": "constructor"
    },
    {
      "anonymous": false,
      "inputs": [
        {
          "indexed": true,
          "internalType": "uint256",
          "name": "itemId",
          "type": "uint256"
        },
        {
          "indexed": false,
          "internalType": "address",
          "name": "winner",
          "type": "address"
        },
        {
          "indexed": false,
          "internalType": "uint256",
          "name": "winningBid",
          "type": "uint256"
        },
        {
          "indexed": false,
          "internalType": "bool",
          "name": "hadBids",
          "type": "bool"
        }
      ],
      "name": "AuctionEnded",
      "type": "event"
    },
    {
      "anonymous": false,
      "inputs": [
        {
          "indexed": true,
          "internalType": "uint256",
          "name": "itemId",
          "type": "uint256"
        },
        {
          "indexed": true,
          "internalType": "address",
          "name": "nftContract",
          "type": "address"
        },
        {
          "indexed": true,
          "internalType": "uint256",
          "name": "tokenId",
          "type": "uint256"
        },
        {
          "indexed": false,
          "internalType": "address",
          "name": "seller",
          "type": "address"
        },
        {
          "indexed": false,
          "internalType": "uint256",
          "name": "highestBid",
          "type": "uint256"
        },
        {
          "indexed": false,
          "internalType": "address",
          "name": "highestBidder",
          "type": "address"
        },
        {
          "indexed": false,
          "internalType": "uint256",
          "name": "auctionEndTime",
          "type": "uint256"
        },
        {
          "indexed": false,
          "internalType": "bool",
          "name": "ended",
          "type": "bool"
        }
      ],
      "name": "AuctionItemCreated",
      "type": "event"
    },
    {
      "anonymous": false,
      "inputs": [
        {
          "indexed": true,
          "internalType": "uint256",
          "name": "itemId",
          "type": "uint256"
        },
        {
          "indexed": true,
          "internalType": "address",
          "name": "bidder",
          "type": "address"
        },
        {
          "indexed": false,
          "internalType": "uint256",
          "name": "bidAmount",
          "type": "uint256"
        },
        {
          "indexed": false,
          "internalType": "uint256",
          "name": "auctionEndTime",
          "type": "uint256"
        }
      ],
      "name": "BidPlaced",
      "type": "event"
    },
    {
      "anonymous": false,
      "inputs": [
        {
          "indexed": true,
          "internalType": "uint256",
          "name": "itemId",
          "type": "uint256"
        },
        {
          "indexed": true,
          "internalType": "address",
          "name": "nftContract",
          "type": "address"
        },
        {
          "indexed": true,
          "internalType": "uint256",
          "name": "tokenId",
          "type": "uint256"
        },
        {
          "indexed": false,
          "internalType": "address",
          "name": "seller",
          "type": "address"
        },
        {
          "indexed": false,
          "internalType": "address",
          "name": "owner",
          "type": "address"
        },
        {
          "indexed": false,
          "internalType": "uint256",
          "name": "price",
          "type": "uint256"
        },
        {
          "indexed": false,
          "internalType": "bool",
          "name": "sold",
          "type": "bool"
        },
        {
          "indexed": false,
          "internalType": "bool",
          "name": "removed",
          "type": "bool"
        }
      ],
      "name": "MarketItemCreated",
      "type": "event"
    },
    {
      "anonymous": false,
      "inputs": [
        {
          "indexed": true,
          "internalType": "uint256",
          "name": "itemId",
          "type": "uint256"
        },
        {
          "indexed": true,
          "internalType": "address",
          "name": "nftContract",
          "type": "address"
        },
        {
          "indexed": true,
          "internalType": "uint256",
          "name": "tokenId",
          "type": "uint256"
        },
        {
          "indexed": false,
          "internalType": "address",
          "name": "seller",
          "type": "address"
        },
        {
          "indexed": false,
          "internalType": "address",
          "name": "buyer",
          "type": "address"
        },
        {
          "indexed": false,
          "internalType": "uint256",
          "name": "price",
          "type": "uint256"
        }
      ],
      "name": "MarketSaleCreated",
      "type": "event"
    },
    {
      "inputs": [
        {
          "internalType": "address",
          "name": "nftContract",
          "type": "address"
        },
        {
          "internalType": "uint256",
          "name": "tokenId",
          "type": "uint256"
        },
        {
          "internalType": "uint256",
          "name": "price",
          "type": "uint256"
        }
      ],
      "name": "createMarketItem",
      "outputs": [
        {
          "internalType": "uint256",
          "name": "",
          "type": "uint256"
        }
      ],
      "stateMutability": "payable",
      "type": "function"
    },
    {
      "inputs": [
        {
          "internalType": "address",
          "name": "nftContract",
          "type": "address"
        },
        {
          "internalType": "uint256",
          "name": "itemId",
          "type": "uint256"
        }
      ],
      "name": "removeMarketItem",
      "outputs": [],
      "stateMutability": "payable",
      "type": "function"
    },
    {
      "inputs": [
        {
          "internalType": "address",
          "name": "nftContract",
          "type": "address"
        },
        {
          "internalType": "uint256",
          "name": "tokenId",
          "type": "uint256"
        },
        {
          "internalType": "uint256",
          "name": "minBid",
          "type": "uint256"
        },
        {
          "internalType": "uint256",
          "name": "auctionEndTime",
          "type": "uint256"
        }
      ],
      "name": "createAuctionItem",
      "outputs": [],
      "stateMutability": "payable",
      "type": "function"
    },
    {
      "inputs": [
        {
          "internalType": "address",
          "name": "nftContract",
          "type": "address"
        },
        {
          "internalType": "uint256",
          "name": "itemId",
          "type": "uint256"
        }
      ],
      "name": "createMarketSale",
      "outputs": [],
      "stateMutability": "payable",
      "type": "function"
    },
    {
      "inputs": [
        {
          "internalType": "uint256",
          "name": "itemId",
          "type": "uint256"
        }
      ],
      "name": "bidOnAuction",
      "outputs": [],
      "stateMutability": "payable",
      "type": "function"
    },
    {
      "inputs": [
        {
          "internalType": "uint256",
          "name": "itemId",
          "type": "uint256"
        }
      ],
      "name": "endAuction",
      "outputs": [],
      "stateMutability": "nonpayable",
      "type": "function"
    },
    {
      "inputs": [],
      "name": "getAvailableMarketItems",
      "outputs": [
        {
          "internalType": "uint256[]",
          "name": "",
          "type": "uint256[]"
        }
      ],
      "stateMutability": "view",
      "type": "function"
    },
    {
      "inputs": [],
      "name": "getAvailableAuctionItems",
      "outputs": [
        {
          "internalType": "uint256[]",
          "name": "",
          "type": "uint256[]"
        }
      ],
      "stateMutability": "view",
      "type": "function"
    },
    {
      "inputs": [
        {
          "internalType": "uint256",
          "name": "itemId",
          "type": "uint256"
        }
      ],
      "name": "getMarketItemById",
      "outputs": [
        {
          "components": [
            {
              "internalType": "uint256",
              "name": "itemId",
              "type": "uint256"
            },
            {
              "internalType": "address",
              "name": "nftContract",
              "type": "address"
            },
            {
              "internalType": "uint256",
              "name": "tokenId",
              "type": "uint256"
            },
            {
              "internalType": "address payable",
              "name": "seller",
              "type": "address"
            },
            {
              "internalType": "address payable",
              "name": "owner",
              "type": "address"
            },
            {
              "internalType": "uint256",
              "name": "price",
              "type": "uint256"
            },
            {
              "internalType": "bool",
              "name": "sold",
              "type": "bool"
            },
            {
              "internalType": "bool",
              "name": "removed",
              "type": "bool"
            }
          ],
          "internalType": "struct NFTMarketplace.MarketItem",
          "name": "item",
          "type": "tuple"
        }
      ],
      "stateMutability": "view",
      "type": "function"
    },
    {
      "inputs": [
        {
          "internalType": "uint256",
          "name": "itemId",
          "type": "uint256"
        }
      ],
      "name": "getAuctionItemById",
      "outputs": [
        {
          "components": [
            {
              "internalType": "uint256",
              "name": "itemId",
              "type": "uint256"
            },
            {
              "internalType": "address",
              "name": "nftContract",
              "type": "address"
            },
            {
              "internalType": "uint256",
              "name": "tokenId",
              "type": "uint256"
            },
            {
              "internalType": "address payable",
              "name": "seller",
              "type": "address"
            },
            {
              "internalType": "uint256",
              "name": "highestBid",
              "type": "uint256"
            },
            {
              "internalType": "address payable",
              "name": "highestBidder",
              "type": "address"
            },
            {
              "internalType": "uint256",
              "name": "auctionEndTime",
              "type": "uint256"
            },
            {
              "internalType": "bool",
              "name": "ended",
              "type": "bool"
            }
          ],
          "internalType": "struct NFTMarketplace.AuctionItem",
          "name": "item",
          "type": "tuple"
        }
      ],
      "stateMutability": "view",
      "type": "function"
    },
    {
      "inputs": [],
      "name": "getMarketplaceOwner",
      "outputs": [
        {
          "internalType": "address",
          "name": "marketplaceOwner",
          "type": "address"
        }
      ],
      "stateMutability": "view",
      "type": "function"
    },
    {
      "inputs": [],
      "name": "getMarketplaceListingFee",
      "outputs": [
        {
          "internalType": "uint256",
          "name": "fee",
          "type": "uint256"
        }
      ],
      "stateMutability": "view",
      "type": "function"
    }
  ],
  "bytecode": "0x60806040526658d15e17628000600355348015601a57600080fd5b50600160008190555033600260006101000a81548173ffffffffffffffffffffffffffffffffffffffff021916908373ffffffffffffffffffffffffffffffffffffffff160217905550613738806100736000396000f3fe6080604052600436106100a75760003560e01c806369feccff1161006457806369feccff146101c857806389710a0b146101e4578063a19e96e214610200578063b9a2de3a1461022b578063c23b139e14610254578063d0b0ac1714610270576100a7565b8063157c122f146100ac57806326b7aeea146100d757806352516f8c146100f357806353dbceb11461011e57806358eb2df51461015b57806362a8e9f51461018b575b600080fd5b3480156100b857600080fd5b506100c161029b565b6040516100ce9190612536565b60405180910390f35b6100f160048036038101906100ec919061258c565b6102c5565b005b3480156100ff57600080fd5b5061010861054b565b6040516101159190612677565b60405180910390f35b34801561012a57600080fd5b506101456004803603810190610140919061258c565b610804565b6040516101529190612786565b60405180910390f35b610175600480360381019061017091906127ce565b610988565b6040516101829190612830565b60405180910390f35b34801561019757600080fd5b506101b260048036038101906101ad919061258c565b610e91565b6040516101bf91906128ed565b60405180910390f35b6101e260048036038101906101dd9190612909565b611004565b005b6101fe60048036038101906101f99190612949565b61120e565b005b34801561020c57600080fd5b5061021561173a565b6040516102229190612677565b60405180910390f35b34801561023757600080fd5b50610252600480360381019061024d919061258c565b611876565b005b61026e60048036038101906102699190612909565b611e73565b005b34801561027c57600080fd5b5061028561235a565b6040516102929190612830565b60405180910390f35b6000600260009054906101000a900473ffffffffffffffffffffffffffffffffffffffff16905090565b6102cd612364565b60006005600083815260200190815260200160002090508060060154421061032a576040517f08c379a000000000000000000000000000000000000000000000000000000000815260040161032190612a0d565b60405180910390fd5b80600401543411610370576040517f08c379a000000000000000000000000000000000000000000000000000000000815260040161036790612a79565b60405180910390fd5b600073ffffffffffffffffffffffffffffffffffffffff168160050160009054906101000a900473ffffffffffffffffffffffffffffffffffffffff1673ffffffffffffffffffffffffffffffffffffffff161461049e5760008160050160009054906101000a900473ffffffffffffffffffffffffffffffffffffffff1673ffffffffffffffffffffffffffffffffffffffff16826004015460405161041690612aca565b60006040518083038185875af1925050503d8060008114610453576040519150601f19603f3d011682016040523d82523d6000602084013e610458565b606091505b505090508061049c576040517f08c379a000000000000000000000000000000000000000000000000000000000815260040161049390612b51565b60405180910390fd5b505b348160040181905550338160050160006101000a81548173ffffffffffffffffffffffffffffffffffffffff021916908373ffffffffffffffffffffffffffffffffffffffff1602179055503373ffffffffffffffffffffffffffffffffffffffff16827f51db8e23b3f4479b162fd48823b8402895442b8f6cfd94f66239391881ec7b6f348460060154604051610537929190612b71565b60405180910390a3506105486123b3565b50565b6060600061055960016123bd565b90506000805b8281101561066d57600073ffffffffffffffffffffffffffffffffffffffff16600460006001846105909190612bc9565b815260200190815260200160002060040160009054906101000a900473ffffffffffffffffffffffffffffffffffffffff1673ffffffffffffffffffffffffffffffffffffffff161480156106125750600460006001836105f19190612bc9565b815260200190815260200160002060060160009054906101000a900460ff16155b801561064b57506004600060018361062a9190612bc9565b815260200190815260200160002060060160019054906101000a900460ff16155b156106605760018261065d9190612bc9565b91505b808060010191505061055f565b5060008167ffffffffffffffff81111561068a57610689612bfd565b5b6040519080825280602002602001820160405280156106b85781602001602082028036833780820191505090505b5090506000805b848110156107f957600073ffffffffffffffffffffffffffffffffffffffff16600460006001846106f09190612bc9565b815260200190815260200160002060040160009054906101000a900473ffffffffffffffffffffffffffffffffffffffff1673ffffffffffffffffffffffffffffffffffffffff161480156107725750600460006001836107519190612bc9565b815260200190815260200160002060060160009054906101000a900460ff16155b80156107ab57506004600060018361078a9190612bc9565b815260200190815260200160002060060160019054906101000a900460ff16155b156107ec576001816107bd9190612bc9565b8383815181106107d0576107cf612c2c565b5b6020026020010181815250506001826107e99190612bc9565b91505b80806001019150506106bf565b508194505050505090565b61080c6123e1565b6004600083815260200190815260200160002060405180610100016040529081600082015481526020016001820160009054906101000a900473ffffffffffffffffffffffffffffffffffffffff1673ffffffffffffffffffffffffffffffffffffffff1673ffffffffffffffffffffffffffffffffffffffff168152602001600282015481526020016003820160009054906101000a900473ffffffffffffffffffffffffffffffffffffffff1673ffffffffffffffffffffffffffffffffffffffff1673ffffffffffffffffffffffffffffffffffffffff1681526020016004820160009054906101000a900473ffffffffffffffffffffffffffffffffffffffff1673ffffffffffffffffffffffffffffffffffffffff1673ffffffffffffffffffffffffffffffffffffffff168152602001600582015481526020016006820160009054906101000a900460ff161515151581526020016006820160019054906101000a900460ff1615151515815250509050919050565b6000610992612364565b600082116109d5576040517f08c379a00000000000000000000000000000000000000000000000000000000081526004016109cc90612ca7565b60405180910390fd5b6003543414610a19576040517f08c379a0000000000000000000000000000000000000000000000000000000008152600401610a1090612d13565b60405180910390fd5b8373ffffffffffffffffffffffffffffffffffffffff16636352211e846040518263ffffffff1660e01b8152600401610a529190612830565b602060405180830381865afa158015610a6f573d6000803e3d6000fd5b505050506040513d601f19601f82011682018060405250810190610a939190612d48565b73ffffffffffffffffffffffffffffffffffffffff163373ffffffffffffffffffffffffffffffffffffffff1614610b00576040517f08c379a0000000000000000000000000000000000000000000000000000000008152600401610af790612dc1565b60405180910390fd5b610b0a60016123cb565b6000610b1660016123bd565b90506040518061010001604052808281526020018673ffffffffffffffffffffffffffffffffffffffff1681526020018581526020013373ffffffffffffffffffffffffffffffffffffffff168152602001600073ffffffffffffffffffffffffffffffffffffffff16815260200184815260200160001515815260200160001515815250600460008381526020019081526020016000206000820151816000015560208201518160010160006101000a81548173ffffffffffffffffffffffffffffffffffffffff021916908373ffffffffffffffffffffffffffffffffffffffff1602179055506040820151816002015560608201518160030160006101000a81548173ffffffffffffffffffffffffffffffffffffffff021916908373ffffffffffffffffffffffffffffffffffffffff16021790555060808201518160040160006101000a81548173ffffffffffffffffffffffffffffffffffffffff021916908373ffffffffffffffffffffffffffffffffffffffff16021790555060a0820151816005015560c08201518160060160006101000a81548160ff02191690831515021790555060e08201518160060160016101000a81548160ff0219169083151502179055509050508473ffffffffffffffffffffffffffffffffffffffff166323b872dd3330876040518463ffffffff1660e01b8152600401610d2193929190612de1565b600060405180830381600087803b158015610d3b57600080fd5b505af1158015610d4f573d6000803e3d6000fd5b505050506000600260009054906101000a900473ffffffffffffffffffffffffffffffffffffffff1673ffffffffffffffffffffffffffffffffffffffff16600354604051610d9d90612aca565b60006040518083038185875af1925050503d8060008114610dda576040519150601f19603f3d011682016040523d82523d6000602084013e610ddf565b606091505b5050905080610e23576040517f08c379a0000000000000000000000000000000000000000000000000000000008152600401610e1a90612e64565b60405180910390fd5b848673ffffffffffffffffffffffffffffffffffffffff16837fc99151f4453170a67bc7441775fde1a3bc3220c06645df1121e703aab5e7da5d33600089600080604051610e75959493929190612ef2565b60405180910390a48192505050610e8a6123b3565b9392505050565b610e9961246c565b6005600083815260200190815260200160002060405180610100016040529081600082015481526020016001820160009054906101000a900473ffffffffffffffffffffffffffffffffffffffff1673ffffffffffffffffffffffffffffffffffffffff1673ffffffffffffffffffffffffffffffffffffffff168152602001600282015481526020016003820160009054906101000a900473ffffffffffffffffffffffffffffffffffffffff1673ffffffffffffffffffffffffffffffffffffffff1673ffffffffffffffffffffffffffffffffffffffff168152602001600482015481526020016005820160009054906101000a900473ffffffffffffffffffffffffffffffffffffffff1673ffffffffffffffffffffffffffffffffffffffff1673ffffffffffffffffffffffffffffffffffffffff168152602001600682015481526020016007820160009054906101000a900460ff1615151515815250509050919050565b61100c612364565b6000600460008381526020019081526020016000206002015490506000811161106a576040517f08c379a000000000000000000000000000000000000000000000000000000000815260040161106190612f91565b60405180910390fd5b3373ffffffffffffffffffffffffffffffffffffffff166004600084815260200190815260200160002060030160009054906101000a900473ffffffffffffffffffffffffffffffffffffffff1673ffffffffffffffffffffffffffffffffffffffff161461110e576040517f08c379a000000000000000000000000000000000000000000000000000000000815260040161110590612dc1565b60405180910390fd5b8273ffffffffffffffffffffffffffffffffffffffff166323b872dd3033846040518463ffffffff1660e01b815260040161114b93929190612de1565b600060405180830381600087803b15801561116557600080fd5b505af1158015611179573d6000803e3d6000fd5b50505050336004600084815260200190815260200160002060040160006101000a81548173ffffffffffffffffffffffffffffffffffffffff021916908373ffffffffffffffffffffffffffffffffffffffff16021790555060016004600084815260200190815260200160002060060160016101000a81548160ff0219169083151502179055505061120a6123b3565b5050565b611216612364565b60008211611259576040517f08c379a000000000000000000000000000000000000000000000000000000000815260040161125090613023565b60405180910390fd5b600354341461129d576040517f08c379a000000000000000000000000000000000000000000000000000000000815260040161129490612d13565b60405180910390fd5b4281116112df576040517f08c379a00000000000000000000000000000000000000000000000000000000081526004016112d6906130b5565b60405180910390fd5b8373ffffffffffffffffffffffffffffffffffffffff16636352211e846040518263ffffffff1660e01b81526004016113189190612830565b602060405180830381865afa158015611335573d6000803e3d6000fd5b505050506040513d601f19601f820116820180604052508101906113599190612d48565b73ffffffffffffffffffffffffffffffffffffffff163373ffffffffffffffffffffffffffffffffffffffff16146113c6576040517f08c379a00000000000000000000000000000000000000000000000000000000081526004016113bd90612dc1565b60405180910390fd5b6113d060016123cb565b60006113dc60016123bd565b90506040518061010001604052808281526020018673ffffffffffffffffffffffffffffffffffffffff1681526020018581526020013373ffffffffffffffffffffffffffffffffffffffff168152602001848152602001600073ffffffffffffffffffffffffffffffffffffffff16815260200183815260200160001515815250600560008381526020019081526020016000206000820151816000015560208201518160010160006101000a81548173ffffffffffffffffffffffffffffffffffffffff021916908373ffffffffffffffffffffffffffffffffffffffff1602179055506040820151816002015560608201518160030160006101000a81548173ffffffffffffffffffffffffffffffffffffffff021916908373ffffffffffffffffffffffffffffffffffffffff1602179055506080820151816004015560a08201518160050160006101000a81548173ffffffffffffffffffffffffffffffffffffffff021916908373ffffffffffffffffffffffffffffffffffffffff16021790555060c0820151816006015560e08201518160070160006101000a81548160ff0219169083151502179055509050508473ffffffffffffffffffffffffffffffffffffffff166323b872dd3330876040518463ffffffff1660e01b81526004016115ce93929190612de1565b600060405180830381600087803b1580156115e857600080fd5b505af11580156115fc573d6000803e3d6000fd5b505050506000600260009054906101000a900473ffffffffffffffffffffffffffffffffffffffff1673ffffffffffffffffffffffffffffffffffffffff1660035460405161164a90612aca565b60006040518083038185875af1925050503d8060008114611687576040519150601f19603f3d011682016040523d82523d6000602084013e61168c565b606091505b50509050806116d0576040517f08c379a00000000000000000000000000000000000000000000000000000000081526004016116c790612e64565b60405180910390fd5b848673ffffffffffffffffffffffffffffffffffffffff16837f33292041fd4d98712b3c9d11c446ba5e2f937cc1652a196b3d9969d53790341e338860008960006040516117229594939291906130d5565b60405180910390a450506117346123b3565b50505050565b6060600061174860016123bd565b90506000805b8281101561179d576000600560006001846117699190612bc9565b815260200190815260200160002060060154111561179057818061178c90613128565b9250505b808060010191505061174e565b5060008167ffffffffffffffff8111156117ba576117b9612bfd565b5b6040519080825280602002602001820160405280156117e85781602001602082028036833780820191505090505b5090506000805b8481101561186b5760006005600060018461180a9190612bc9565b815260200190815260200160002060060154111561185e5760018161182f9190612bc9565b83838151811061184257611841612c2c565b5b60200260200101818152505060018261185b9190612bc9565b91505b80806001019150506117ef565b508194505050505090565b61187e612364565b6000600560008381526020019081526020016000209050600260009054906101000a900473ffffffffffffffffffffffffffffffffffffffff1673ffffffffffffffffffffffffffffffffffffffff163373ffffffffffffffffffffffffffffffffffffffff1614611925576040517f08c379a000000000000000000000000000000000000000000000000000000000815260040161191c906131e2565b60405180910390fd5b8060070160009054906101000a900460ff1615611977576040517f08c379a000000000000000000000000000000000000000000000000000000000815260040161196e90613274565b60405180910390fd5b60018160070160006101000a81548160ff02191690831515021790555060008073ffffffffffffffffffffffffffffffffffffffff168260050160009054906101000a900473ffffffffffffffffffffffffffffffffffffffff1673ffffffffffffffffffffffffffffffffffffffff16141590508015611d46576000808360010160009054906101000a900473ffffffffffffffffffffffffffffffffffffffff1673ffffffffffffffffffffffffffffffffffffffff16632a55205a856002015486600401546040518363ffffffff1660e01b8152600401611a5c929190612b71565b6040805180830381865afa158015611a78573d6000803e3d6000fd5b505050506040513d601f19601f82011682018060405250810190611a9c91906132a9565b915091508360040154811115611ae7576040517f08c379a0000000000000000000000000000000000000000000000000000000008152600401611ade90613335565b60405180910390fd5b6000818560040154611af99190613355565b90506000821115611bb25760008373ffffffffffffffffffffffffffffffffffffffff1683604051611b2a90612aca565b60006040518083038185875af1925050503d8060008114611b67576040519150601f19603f3d011682016040523d82523d6000602084013e611b6c565b606091505b5050905080611bb0576040517f08c379a0000000000000000000000000000000000000000000000000000000008152600401611ba7906133fb565b60405180910390fd5b505b60008560030160009054906101000a900473ffffffffffffffffffffffffffffffffffffffff1673ffffffffffffffffffffffffffffffffffffffff1682604051611bfc90612aca565b60006040518083038185875af1925050503d8060008114611c39576040519150601f19603f3d011682016040523d82523d6000602084013e611c3e565b606091505b5050905080611c82576040517f08c379a0000000000000000000000000000000000000000000000000000000008152600401611c7990613467565b60405180910390fd5b8560010160009054906101000a900473ffffffffffffffffffffffffffffffffffffffff1673ffffffffffffffffffffffffffffffffffffffff166323b872dd308860050160009054906101000a900473ffffffffffffffffffffffffffffffffffffffff1689600201546040518463ffffffff1660e01b8152600401611d0b93929190613487565b600060405180830381600087803b158015611d2557600080fd5b505af1158015611d39573d6000803e3d6000fd5b5050505050505050611e02565b8160010160009054906101000a900473ffffffffffffffffffffffffffffffffffffffff1673ffffffffffffffffffffffffffffffffffffffff166323b872dd308460030160009054906101000a900473ffffffffffffffffffffffffffffffffffffffff1685600201546040518463ffffffff1660e01b8152600401611dcf93929190613487565b600060405180830381600087803b158015611de957600080fd5b505af1158015611dfd573d6000803e3d6000fd5b505050505b827f743c73b6b5b2507218f0edf78a2c978eb14bd37e0da21cd28b9af089032de1a68360050160009054906101000a900473ffffffffffffffffffffffffffffffffffffffff16846004015484604051611e5e939291906134be565b60405180910390a25050611e706123b3565b50565b611e7b612364565b600060046000838152602001908152602001600020600501549050600060046000848152602001908152602001600020600201549050600015156004600085815260200190815260200160002060060160009054906101000a900460ff16151514611f1b576040517f08c379a0000000000000000000000000000000000000000000000000000000008152600401611f1290613541565b60405180910390fd5b813414611f5d576040517f08c379a0000000000000000000000000000000000000000000000000000000008152600401611f54906135d3565b60405180910390fd5b6000808573ffffffffffffffffffffffffffffffffffffffff16632a55205a84866040518363ffffffff1660e01b8152600401611f9b929190612b71565b6040805180830381865afa158015611fb7573d6000803e3d6000fd5b505050506040513d601f19601f82011682018060405250810190611fdb91906132a9565b9150915083811115612022576040517f08c379a00000000000000000000000000000000000000000000000000000000081526004016120199061363f565b60405180910390fd5b60008111156120d95760008273ffffffffffffffffffffffffffffffffffffffff168260405161205190612aca565b60006040518083038185875af1925050503d806000811461208e576040519150601f19603f3d011682016040523d82523d6000602084013e612093565b606091505b50509050806120d7576040517f08c379a00000000000000000000000000000000000000000000000000000000081526004016120ce906133fb565b60405180910390fd5b505b600081856120e79190613355565b9050336004600088815260200190815260200160002060040160006101000a81548173ffffffffffffffffffffffffffffffffffffffff021916908373ffffffffffffffffffffffffffffffffffffffff16021790555060016004600088815260200190815260200160002060060160006101000a81548160ff02191690831515021790555060006004600088815260200190815260200160002060030160009054906101000a900473ffffffffffffffffffffffffffffffffffffffff1673ffffffffffffffffffffffffffffffffffffffff16826040516121c990612aca565b60006040518083038185875af1925050503d8060008114612206576040519150601f19603f3d011682016040523d82523d6000602084013e61220b565b606091505b505090508061224f576040517f08c379a000000000000000000000000000000000000000000000000000000000815260040161224690613467565b60405180910390fd5b8773ffffffffffffffffffffffffffffffffffffffff166323b872dd3033886040518463ffffffff1660e01b815260040161228c93929190612de1565b600060405180830381600087803b1580156122a657600080fd5b505af11580156122ba573d6000803e3d6000fd5b50505050848873ffffffffffffffffffffffffffffffffffffffff16887ff54c472f99919e7ecf51b17ab565b63ccc2dee86869e25eadaebfc6b45baec0e600460008c815260200190815260200160002060030160009054906101000a900473ffffffffffffffffffffffffffffffffffffffff1633876040516123409392919061365f565b60405180910390a45050505050506123566123b3565b5050565b6000600354905090565b6002600054036123a9576040517f08c379a00000000000000000000000000000000000000000000000000000000081526004016123a0906136e2565b60405180910390fd5b6002600081905550565b6001600081905550565b600081600001549050919050565b6001816000016000828254019250508190555050565b60405180610100016040528060008152602001600073ffffffffffffffffffffffffffffffffffffffff16815260200160008152602001600073ffffffffffffffffffffffffffffffffffffffff168152602001600073ffffffffffffffffffffffffffffffffffffffff168152602001600081526020016000151581526020016000151581525090565b60405180610100016040528060008152602001600073ffffffffffffffffffffffffffffffffffffffff16815260200160008152602001600073ffffffffffffffffffffffffffffffffffffffff16815260200160008152602001600073ffffffffffffffffffffffffffffffffffffffff168152602001600081526020016000151581525090565b600073ffffffffffffffffffffffffffffffffffffffff82169050919050565b6000612520826124f5565b9050919050565b61253081612515565b82525050565b600060208201905061254b6000830184612527565b92915050565b600080fd5b6000819050919050565b61256981612556565b811461257457600080fd5b50565b60008135905061258681612560565b92915050565b6000602082840312156125a2576125a1612551565b5b60006125b084828501612577565b91505092915050565b600081519050919050565b600082825260208201905092915050565b6000819050602082019050919050565b6125ee81612556565b82525050565b600061260083836125e5565b60208301905092915050565b6000602082019050919050565b6000612624826125b9565b61262e81856125c4565b9350612639836125d5565b8060005b8381101561266a57815161265188826125f4565b975061265c8361260c565b92505060018101905061263d565b5085935050505092915050565b600060208201905081810360008301526126918184612619565b905092915050565b6126a281612515565b82525050565b60006126b3826124f5565b9050919050565b6126c3816126a8565b82525050565b60008115159050919050565b6126de816126c9565b82525050565b610100820160008201516126fb60008501826125e5565b50602082015161270e6020850182612699565b50604082015161272160408501826125e5565b50606082015161273460608501826126ba565b50608082015161274760808501826126ba565b5060a082015161275a60a08501826125e5565b5060c082015161276d60c08501826126d5565b5060e082015161278060e08501826126d5565b50505050565b60006101008201905061279c60008301846126e4565b92915050565b6127ab81612515565b81146127b657600080fd5b50565b6000813590506127c8816127a2565b92915050565b6000806000606084860312156127e7576127e6612551565b5b60006127f5868287016127b9565b935050602061280686828701612577565b925050604061281786828701612577565b9150509250925092565b61282a81612556565b82525050565b60006020820190506128456000830184612821565b92915050565b6101008201600082015161286260008501826125e5565b5060208201516128756020850182612699565b50604082015161288860408501826125e5565b50606082015161289b60608501826126ba565b5060808201516128ae60808501826125e5565b5060a08201516128c160a08501826126ba565b5060c08201516128d460c08501826125e5565b5060e08201516128e760e08501826126d5565b50505050565b600061010082019050612903600083018461284b565b92915050565b600080604083850312156129205761291f612551565b5b600061292e858286016127b9565b925050602061293f85828601612577565b9150509250929050565b6000806000806080858703121561296357612962612551565b5b6000612971878288016127b9565b945050602061298287828801612577565b935050604061299387828801612577565b92505060606129a487828801612577565b91505092959194509250565b600082825260208201905092915050565b7f41756374696f6e2068617320656e646564000000000000000000000000000000600082015250565b60006129f76011836129b0565b9150612a02826129c1565b602082019050919050565b60006020820190508181036000830152612a26816129ea565b9050919050565b7f546865726520697320616c726561647920612068696768657220626964000000600082015250565b6000612a63601d836129b0565b9150612a6e82612a2d565b602082019050919050565b60006020820190508181036000830152612a9281612a56565b9050919050565b600081905092915050565b50565b6000612ab4600083612a99565b9150612abf82612aa4565b600082019050919050565b6000612ad582612aa7565b9150819050919050565b7f4661696c656420746f2072657475726e2062696420746f2070726576696f757360008201527f2068696768657374206269646465720000000000000000000000000000000000602082015250565b6000612b3b602f836129b0565b9150612b4682612adf565b604082019050919050565b60006020820190508181036000830152612b6a81612b2e565b9050919050565b6000604082019050612b866000830185612821565b612b936020830184612821565b9392505050565b7f4e487b7100000000000000000000000000000000000000000000000000000000600052601160045260246000fd5b6000612bd482612556565b9150612bdf83612556565b9250828201905080821115612bf757612bf6612b9a565b5b92915050565b7f4e487b7100000000000000000000000000000000000000000000000000000000600052604160045260246000fd5b7f4e487b7100000000000000000000000000000000000000000000000000000000600052603260045260246000fd5b7f5072696365206d757374206265206174206c6561737420312077656900000000600082015250565b6000612c91601c836129b0565b9150612c9c82612c5b565b602082019050919050565b60006020820190508181036000830152612cc081612c84565b9050919050565b7f506c65617365207375626d697420746865206c697374696e6720666565000000600082015250565b6000612cfd601d836129b0565b9150612d0882612cc7565b602082019050919050565b60006020820190508181036000830152612d2c81612cf0565b9050919050565b600081519050612d42816127a2565b92915050565b600060208284031215612d5e57612d5d612551565b5b6000612d6c84828501612d33565b91505092915050565b7f43616c6c6572206973206e6f7420746865204e4654206f776e65720000000000600082015250565b6000612dab601b836129b0565b9150612db682612d75565b602082019050919050565b60006020820190508181036000830152612dda81612d9e565b9050919050565b6000606082019050612df66000830186612527565b612e036020830185612527565b612e106040830184612821565b949350505050565b7f4661696c656420746f2073656e64206c697374696e6720666565000000000000600082015250565b6000612e4e601a836129b0565b9150612e5982612e18565b602082019050919050565b60006020820190508181036000830152612e7d81612e41565b9050919050565b6000819050919050565b6000612ea9612ea4612e9f846124f5565b612e84565b6124f5565b9050919050565b6000612ebb82612e8e565b9050919050565b6000612ecd82612eb0565b9050919050565b612edd81612ec2565b82525050565b612eec816126c9565b82525050565b600060a082019050612f076000830188612ed4565b612f146020830187612ed4565b612f216040830186612821565b612f2e6060830185612ee3565b612f3b6080830184612ee3565b9695505050505050565b7f4d61726b6574206974656d20646f6573206e6f74206578697374000000000000600082015250565b6000612f7b601a836129b0565b9150612f8682612f45565b602082019050919050565b60006020820190508181036000830152612faa81612f6e565b9050919050565b7f4d696e696d756d20626964206d7573742062652067726561746572207468616e60008201527f2030000000000000000000000000000000000000000000000000000000000000602082015250565b600061300d6022836129b0565b915061301882612fb1565b604082019050919050565b6000602082019050818103600083015261303c81613000565b9050919050565b7f41756374696f6e20656e642074696d65206d75737420626520696e207468652060008201527f6675747572650000000000000000000000000000000000000000000000000000602082015250565b600061309f6026836129b0565b91506130aa82613043565b604082019050919050565b600060208201905081810360008301526130ce81613092565b9050919050565b600060a0820190506130ea6000830188612527565b6130f76020830187612821565b6131046040830186612527565b6131116060830185612821565b61311e6080830184612ee3565b9695505050505050565b600061313382612556565b91507fffffffffffffffffffffffffffffffffffffffffffffffffffffffffffffffff820361316557613164612b9a565b5b600182019050919050565b7f43616c6c6572206973206e6f7420746865206d61726b6574706c616365206f7760008201527f6e65720000000000000000000000000000000000000000000000000000000000602082015250565b60006131cc6023836129b0565b91506131d782613170565b604082019050919050565b600060208201905081810360008301526131fb816131bf565b9050919050565b7f41756374696f6e20656e642068617320616c7265616479206265656e2063616c60008201527f6c65640000000000000000000000000000000000000000000000000000000000602082015250565b600061325e6023836129b0565b915061326982613202565b604082019050919050565b6000602082019050818103600083015261328d81613251565b9050919050565b6000815190506132a381612560565b92915050565b600080604083850312156132c0576132bf612551565b5b60006132ce85828601612d33565b92505060206132df85828601613294565b9150509250929050565b7f526f79616c747920657863656564732074686520686967686573742062696400600082015250565b600061331f601f836129b0565b915061332a826132e9565b602082019050919050565b6000602082019050818103600083015261334e81613312565b9050919050565b600061336082612556565b915061336b83612556565b925082820390508181111561338357613382612b9a565b5b92915050565b7f4661696c656420746f2073656e6420726f79616c747920746f2063726561746f60008201527f7200000000000000000000000000000000000000000000000000000000000000602082015250565b60006133e56021836129b0565b91506133f082613389565b604082019050919050565b60006020820190508181036000830152613414816133d8565b9050919050565b7f4661696c656420746f2073656e642073656c6c65722070726f63656564730000600082015250565b6000613451601e836129b0565b915061345c8261341b565b602082019050919050565b6000602082019050818103600083015261348081613444565b9050919050565b600060608201905061349c6000830186612527565b6134a96020830185612ed4565b6134b66040830184612821565b949350505050565b60006060820190506134d36000830186612ed4565b6134e06020830185612821565b6134ed6040830184612ee3565b949350505050565b7f4974656d20616c726561647920736f6c64000000000000000000000000000000600082015250565b600061352b6011836129b0565b9150613536826134f5565b602082019050919050565b6000602082019050818103600083015261355a8161351e565b9050919050565b7f506c65617365207375626d6974207468652061736b696e67207072696365207460008201527f6f20636f6d706c65746520746865207075726368617365000000000000000000602082015250565b60006135bd6037836129b0565b91506135c882613561565b604082019050919050565b600060208201905081810360008301526135ec816135b0565b9050919050565b7f526f79616c747920657863656564732073616c65207072696365000000000000600082015250565b6000613629601a836129b0565b9150613634826135f3565b602082019050919050565b600060208201905081810360008301526136588161361c565b9050919050565b60006060820190506136746000830186612ed4565b6136816020830185612ed4565b61368e6040830184612821565b949350505050565b7f5265656e7472616e637947756172643a207265656e7472616e742063616c6c00600082015250565b60006136cc601f836129b0565b91506136d782613696565b602082019050919050565b600060208201905081810360008301526136fb816136bf565b905091905056fea2646970667358221220527ce67a17b7d4ac3fdc1c0b87f66616d90c871a9189932b9f186c0465bcb4f364736f6c63430008190033",
  "immutableReferences": {},
  "source": "// SPDX-License-Identifier: MIT\npragma solidity ^0.8.0;\n\nimport \"@openzeppelin/contracts/token/ERC721/IERC721.sol\";\nimport \"@openzeppelin/contracts/interfaces/IERC2981.sol\";\nimport \"@openzeppelin/contracts/security/ReentrancyGuard.sol\";\nimport \"@openzeppelin/contracts/utils/Counters.sol\";\nimport \"@openzeppelin/contracts/utils/math/SafeMath.sol\";\n\ncontract NFTMarketplace is ReentrancyGuard {\n    using Counters for Counters.Counter;\n    using SafeMath for uint256;\n\n    Counters.Counter private _itemIds;\n\n    address payable owner;\n    uint256 listingFee = 0.025 ether;\n\n    constructor() {\n        owner = payable(msg.sender);\n    }\n\n    struct MarketItem {\n        uint itemId;\n        address nftContract;\n        uint256 tokenId;\n        address payable seller;\n        address payable owner;\n        uint256 price;\n        bool sold;\n        bool removed;\n    }\n\n    struct AuctionItem {\n        uint itemId;\n        address nftContract;\n        uint256 tokenId;\n        address payable seller;\n        uint256 highestBid;\n        address payable highestBidder;\n        uint256 auctionEndTime;\n        bool ended;\n    }\n\n    mapping(uint256 => MarketItem) private idToMarketItem;\n    mapping(uint256 => AuctionItem) private idToAuctionItem;\n\n    event MarketItemCreated(\n        uint indexed itemId,\n        address indexed nftContract,\n        uint256 indexed tokenId,\n        address seller,\n        address owner,\n        uint256 price,\n        bool sold,\n        bool removed\n    );\n\n    event AuctionItemCreated(\n        uint indexed itemId,\n        address indexed nftContract,\n        uint256 indexed tokenId,\n        address seller,\n        uint256 highestBid,\n        address highestBidder,\n        uint256 auctionEndTime,\n        bool ended\n    );\n\n    event MarketSaleCreated(\n        uint indexed itemId,\n        address indexed nftContract,\n        uint256 indexed tokenId,\n        address seller,\n        address buyer,\n        uint256 price\n    );\n\n    event BidPlaced(\n        uint indexed itemId,\n        address indexed bidder,\n        uint256 bidAmount,\n        uint256 auctionEndTime\n    );\n\n    event AuctionEnded(\n        uint indexed itemId,\n        address winner,\n        uint256 winningBid,\n        bool hadBids\n    );\n\n    function createMarketItem(\n        address nftContract,\n        uint256 tokenId,\n        uint256 price\n    ) public payable nonReentrant returns (uint256) {\n        require(price > 0, \"Price must be at least 1 wei\");\n        require(msg.value == listingFee, \"Please submit the listing fee\");\n        require(\n            msg.sender == IERC721(nftContract).ownerOf(tokenId),\n            \"Caller is not the NFT owner\"\n        );\n\n        _itemIds.increment();\n        uint256 itemId = _itemIds.current();\n\n        idToMarketItem[itemId] = MarketItem(\n            itemId,\n            nftContract,\n            tokenId,\n            payable(msg.sender),\n            payable(address(0)),\n            price,\n            false,\n            false\n        );\n\n        IERC721(nftContract).transferFrom(msg.sender, address(this), tokenId);\n\n        (bool listingFeeSuccess, ) = payable(owner).call{value: listingFee}(\"\");\n        require(listingFeeSuccess, \"Failed to send listing fee\");\n\n        emit MarketItemCreated(\n            itemId,\n            nftContract,\n            tokenId,\n            payable(msg.sender),\n            payable(address(0)),\n            price,\n            false,\n            false\n        );\n        return itemId;\n    }\n\n    function removeMarketItem(\n        address nftContract,\n        uint256 itemId\n    ) public payable nonReentrant {\n        uint256 tokenId = idToMarketItem[itemId].tokenId;\n        require(tokenId > 0, \"Market item does not exist\");\n        require(\n            idToMarketItem[itemId].seller == msg.sender,\n            \"Caller is not the NFT owner\"\n        );\n\n        IERC721(nftContract).transferFrom(address(this), msg.sender, tokenId);\n\n        idToMarketItem[itemId].owner = payable(msg.sender);\n        idToMarketItem[itemId].removed = true;\n    }\n\n    function createAuctionItem(\n        address nftContract,\n        uint256 tokenId,\n        uint256 minBid,\n        uint256 auctionEndTime\n    ) public payable nonReentrant {\n        require(minBid > 0, \"Minimum bid must be greater than 0\");\n        require(msg.value == listingFee, \"Please submit the listing fee\");\n        require(\n            auctionEndTime > block.timestamp,\n            \"Auction end time must be in the future\"\n        );\n        require(\n            msg.sender == IERC721(nftContract).ownerOf(tokenId),\n            \"Caller is not the NFT owner\"\n        );\n\n        _itemIds.increment();\n        uint256 itemId = _itemIds.current();\n\n        idToAuctionItem[itemId] = AuctionItem(\n            itemId,\n            nftContract,\n            tokenId,\n            payable(msg.sender),\n            minBid,\n            payable(address(0)),\n            auctionEndTime,\n            false\n        );\n\n        IERC721(nftContract).transferFrom(msg.sender, address(this), tokenId);\n\n        (bool listingFeeSuccess, ) = payable(owner).call{value: listingFee}(\"\");\n        require(listingFeeSuccess, \"Failed to send listing fee\");\n\n        emit AuctionItemCreated(\n            itemId,\n            nftContract,\n            tokenId,\n            msg.sender,\n            minBid,\n            address(0),\n            auctionEndTime,\n            false\n        );\n    }\n\n    function createMarketSale(\n        address nftContract,\n        uint256 itemId\n    ) public payable nonReentrant {\n        uint256 price = idToMarketItem[itemId].price;\n        uint256 tokenId = idToMarketItem[itemId].tokenId;\n        require(idToMarketItem[itemId].sold == false, \"Item already sold\");\n        require(\n            msg.value == price,\n            \"Please submit the asking price to complete the purchase\"\n        );\n\n        (address royaltyReceiver, uint256 royaltyAmount) = IERC2981(nftContract)\n            .royaltyInfo(tokenId, price);\n        require(royaltyAmount <= price, \"Royalty exceeds sale price\");\n\n        if (royaltyAmount > 0) {\n            (bool royaltySuccess, ) = payable(royaltyReceiver).call{\n                value: royaltyAmount\n            }(\"\");\n            require(royaltySuccess, \"Failed to send royalty to creator\");\n        }\n\n        uint256 sellerProceeds = price - royaltyAmount;\n\n        idToMarketItem[itemId].owner = payable(msg.sender);\n        idToMarketItem[itemId].sold = true;\n\n        (bool proceedsSuccess, ) = idToMarketItem[itemId].seller.call{\n            value: sellerProceeds\n        }(\"\");\n        require(proceedsSuccess, \"Failed to send seller proceeds\");\n        IERC721(nftContract).transferFrom(address(this), msg.sender, tokenId);\n\n        emit MarketSaleCreated(\n            itemId,\n            nftContract,\n            tokenId,\n            idToMarketItem[itemId].seller,\n            payable(msg.sender),\n            sellerProceeds\n        );\n    }\n\n    function bidOnAuction(uint256 itemId) public payable nonReentrant {\n        AuctionItem storage auction = idToAuctionItem[itemId];\n        require(block.timestamp < auction.auctionEndTime, \"Auction has ended\");\n        require(\n            msg.value > auction.highestBid,\n            \"There is already a higher bid\"\n        );\n\n        if (auction.highestBidder != address(0)) {\n            (bool returnBidSuccess, ) = auction.highestBidder.call{\n                value: auction.highestBid\n            }(\"\");\n            require(\n                returnBidSuccess,\n                \"Failed to return bid to previous highest bidder\"\n            );\n        }\n\n        auction.highestBid = msg.value;\n        auction.highestBidder = payable(msg.sender);\n\n        emit BidPlaced(itemId, msg.sender, msg.value, auction.auctionEndTime);\n    }\n\n    function endAuction(uint256 itemId) public nonReentrant {\n        AuctionItem storage auction = idToAuctionItem[itemId];\n        require(msg.sender == owner, \"Caller is not the marketplace owner\");\n        require(!auction.ended, \"Auction end has already been called\");\n\n        auction.ended = true;\n        bool hadBids = auction.highestBidder != address(0);\n\n        if (hadBids) {\n            (address royaltyReceiver, uint256 royaltyAmount) = IERC2981(\n                auction.nftContract\n            ).royaltyInfo(auction.tokenId, auction.highestBid);\n            require(\n                royaltyAmount <= auction.highestBid,\n                \"Royalty exceeds the highest bid\"\n            );\n\n            uint256 sellerProceeds = auction.highestBid - royaltyAmount;\n\n            if (royaltyAmount > 0) {\n                (bool royaltySuccess, ) = payable(royaltyReceiver).call{\n                    value: royaltyAmount\n                }(\"\");\n                require(royaltySuccess, \"Failed to send royalty to creator\");\n            }\n\n            (bool proceedsSuccess, ) = auction.seller.call{\n                value: sellerProceeds\n            }(\"\");\n            require(proceedsSuccess, \"Failed to send seller proceeds\");\n            IERC721(auction.nftContract).transferFrom(\n                address(this),\n                auction.highestBidder,\n                auction.tokenId\n            );\n        } else {\n            IERC721(auction.nftContract).transferFrom(\n                address(this),\n                auction.seller,\n                auction.tokenId\n            );\n        }\n\n        emit AuctionEnded(\n            itemId,\n            auction.highestBidder,\n            auction.highestBid,\n            hadBids\n        );\n    }\n\n    function getAvailableMarketItems() public view returns (uint256[] memory) {\n        uint256 itemsCount = _itemIds.current();\n        uint256 availableItemsCount = 0;\n        for (uint256 i = 0; i < itemsCount; i++) {\n            if (\n                idToMarketItem[i + 1].owner == address(0) &&\n                !idToMarketItem[i + 1].sold &&\n                !idToMarketItem[i + 1].removed\n            ) {\n                availableItemsCount += 1;\n            }\n        }\n\n        uint256[] memory availableItemIds = new uint256[](availableItemsCount);\n        uint256 currentIndex = 0;\n        for (uint256 i = 0; i < itemsCount; i++) {\n            if (\n                idToMarketItem[i + 1].owner == address(0) &&\n                !idToMarketItem[i + 1].sold &&\n                !idToMarketItem[i + 1].removed\n            ) {\n                availableItemIds[currentIndex] = i + 1; // Store the itemId\n                currentIndex += 1;\n            }\n        }\n\n        return availableItemIds;\n    }\n\n    function getAvailableAuctionItems() public view returns (uint256[] memory) {\n        uint256 itemCount = _itemIds.current();\n        uint256 auctionItemCount = 0;\n        for (uint256 i = 0; i < itemCount; i++) {\n            if (idToAuctionItem[i + 1].auctionEndTime > 0) {\n                auctionItemCount++;\n            }\n        }\n\n        uint256[] memory itemIds = new uint256[](auctionItemCount);\n        uint256 currentIndex = 0;\n        for (uint256 i = 0; i < itemCount; i++) {\n            if (idToAuctionItem[i + 1].auctionEndTime > 0) {\n                itemIds[currentIndex] = i + 1;\n                currentIndex += 1;\n            }\n        }\n\n        return itemIds;\n    }\n\n    function getMarketItemById(\n        uint256 itemId\n    ) public view returns (MarketItem memory item) {\n        return idToMarketItem[itemId];\n    }\n\n    function getAuctionItemById(\n        uint256 itemId\n    ) public view returns (AuctionItem memory item) {\n        return idToAuctionItem[itemId];\n    }\n\n    function getMarketplaceOwner()\n        external\n        view\n        returns (address marketplaceOwner)\n    {\n        return owner;\n    }\n\n    function getMarketplaceListingFee() external view returns (uint256 fee) {\n        return listingFee;\n    }\n}\n",
  "sourcePath": "/Users/manishagoyal/Desktop/nft-marketplace-dapp/contracts/NFTMarketplace.sol",
  "compiler": {
    "name": "solc",
    "version": "0.8.25+commit.b61c2a91.Emscripten.clang"
  },
  "schemaVersion": "3.4.16",
  "updatedAt": "2024-04-03T07:36:20.089Z",
  "devdoc": {
    "kind": "dev",
    "methods": {},
    "version": 1
  },
  "userdoc": {
    "kind": "user",
    "methods": {},
    "version": 1
  }
}